{
	"contracts/UserRegistry.sol": {
		"UserRegistry": {
			"abi": [
				{
					"anonymous": false,
					"inputs": [
						{
							"indexed": true,
							"internalType": "address",
							"name": "userAddress",
							"type": "address"
						},
						{
							"indexed": false,
							"internalType": "string",
							"name": "username",
							"type": "string"
						}
					],
					"name": "UserRegistered",
					"type": "event"
				},
				{
					"inputs": [
						{
							"internalType": "string",
							"name": "_username",
							"type": "string"
						},
						{
							"internalType": "string",
							"name": "_email",
							"type": "string"
						},
						{
							"internalType": "string",
							"name": "_phoneNumber",
							"type": "string"
						},
						{
							"internalType": "string",
							"name": "_profileImage",
							"type": "string"
						},
						{
							"internalType": "uint256",
							"name": "_reputation",
							"type": "uint256"
						}
					],
					"name": "registerUser",
					"outputs": [],
					"stateMutability": "nonpayable",
					"type": "function"
				},
				{
					"inputs": [
						{
							"internalType": "address",
							"name": "",
							"type": "address"
						}
					],
					"name": "users",
					"outputs": [
						{
							"internalType": "string",
							"name": "username",
							"type": "string"
						},
						{
							"internalType": "string",
							"name": "email",
							"type": "string"
						},
						{
							"internalType": "string",
							"name": "phoneNumber",
							"type": "string"
						},
						{
							"internalType": "string",
							"name": "profileImage",
							"type": "string"
						},
						{
							"internalType": "uint256",
							"name": "reputation",
							"type": "uint256"
						}
					],
					"stateMutability": "view",
					"type": "function"
				}
			],
			"devdoc": {
				"kind": "dev",
				"methods": {},
				"version": 1
			},
			"evm": {
				"assembly": "    /* \"contracts/UserRegistry.sol\":61:1138  contract UserRegistry {... */\n  mstore(0x40, 0x80)\n  callvalue\n  dup1\n  iszero\n  tag_1\n  jumpi\n  0x00\n  dup1\n  revert\ntag_1:\n  pop\n  dataSize(sub_0)\n  dup1\n  dataOffset(sub_0)\n  0x00\n  codecopy\n  0x00\n  return\nstop\n\nsub_0: assembly {\n        /* \"contracts/UserRegistry.sol\":61:1138  contract UserRegistry {... */\n      mstore(0x40, 0x80)\n      callvalue\n      dup1\n      iszero\n      tag_1\n      jumpi\n      0x00\n      dup1\n      revert\n    tag_1:\n      pop\n      jumpi(tag_2, lt(calldatasize, 0x04))\n      shr(0xe0, calldataload(0x00))\n      dup1\n      0x0c89338a\n      eq\n      tag_3\n      jumpi\n      dup1\n      0xa87430ba\n      eq\n      tag_4\n      jumpi\n    tag_2:\n      0x00\n      dup1\n      revert\n        /* \"contracts/UserRegistry.sol\":376:1135  function registerUser(string memory _username, string memory _email, string memory _phoneNumber, string memory _profileImage, uint256 _reputation) public {... */\n    tag_3:\n      tag_5\n      0x04\n      dup1\n      calldatasize\n      sub\n      dup2\n      add\n      swap1\n      tag_6\n      swap2\n      swap1\n      tag_7\n      jump\t// in\n    tag_6:\n      tag_8\n      jump\t// in\n    tag_5:\n      stop\n        /* \"contracts/UserRegistry.sol\":255:292  mapping(address => User) public users */\n    tag_4:\n      tag_9\n      0x04\n      dup1\n      calldatasize\n      sub\n      dup2\n      add\n      swap1\n      tag_10\n      swap2\n      swap1\n      tag_11\n      jump\t// in\n    tag_10:\n      tag_12\n      jump\t// in\n    tag_9:\n      mload(0x40)\n      tag_13\n      swap6\n      swap5\n      swap4\n      swap3\n      swap2\n      swap1\n      tag_14\n      jump\t// in\n    tag_13:\n      mload(0x40)\n      dup1\n      swap2\n      sub\n      swap1\n      return\n        /* \"contracts/UserRegistry.sol\":376:1135  function registerUser(string memory _username, string memory _email, string memory _phoneNumber, string memory _profileImage, uint256 _reputation) public {... */\n    tag_8:\n        /* \"contracts/UserRegistry.sol\":575:576  0 */\n      0x00\n        /* \"contracts/UserRegistry.sol\":555:564  _username */\n      dup6\n        /* \"contracts/UserRegistry.sol\":549:572  bytes(_username).length */\n      mload\n        /* \"contracts/UserRegistry.sol\":549:576  bytes(_username).length > 0 */\n      gt\n        /* \"contracts/UserRegistry.sol\":541:605  require(bytes(_username).length > 0, \"Username cannot be empty\") */\n      tag_16\n      jumpi\n      mload(0x40)\n      0x08c379a000000000000000000000000000000000000000000000000000000000\n      dup2\n      mstore\n      0x04\n      add\n      tag_17\n      swap1\n      tag_18\n      jump\t// in\n    tag_17:\n      mload(0x40)\n      dup1\n      swap2\n      sub\n      swap1\n      revert\n    tag_16:\n        /* \"contracts/UserRegistry.sol\":647:648  0 */\n      0x00\n        /* \"contracts/UserRegistry.sol\":630:636  _email */\n      dup5\n        /* \"contracts/UserRegistry.sol\":624:644  bytes(_email).length */\n      mload\n        /* \"contracts/UserRegistry.sol\":624:648  bytes(_email).length > 0 */\n      gt\n        /* \"contracts/UserRegistry.sol\":616:674  require(bytes(_email).length > 0, \"Email cannot be empty\") */\n      tag_19\n      jumpi\n      mload(0x40)\n      0x08c379a000000000000000000000000000000000000000000000000000000000\n      dup2\n      mstore\n      0x04\n      add\n      tag_20\n      swap1\n      tag_21\n      jump\t// in\n    tag_20:\n      mload(0x40)\n      dup1\n      swap2\n      sub\n      swap1\n      revert\n    tag_19:\n        /* \"contracts/UserRegistry.sol\":724:743  User memory newUser */\n      0x00\n        /* \"contracts/UserRegistry.sol\":746:945  User({... */\n      mload(0x40)\n      dup1\n      0xa0\n      add\n      0x40\n      mstore\n      dup1\n        /* \"contracts/UserRegistry.sol\":776:785  _username */\n      dup8\n        /* \"contracts/UserRegistry.sol\":746:945  User({... */\n      dup2\n      mstore\n      0x20\n      add\n        /* \"contracts/UserRegistry.sol\":807:813  _email */\n      dup7\n        /* \"contracts/UserRegistry.sol\":746:945  User({... */\n      dup2\n      mstore\n      0x20\n      add\n        /* \"contracts/UserRegistry.sol\":841:853  _phoneNumber */\n      dup6\n        /* \"contracts/UserRegistry.sol\":746:945  User({... */\n      dup2\n      mstore\n      0x20\n      add\n        /* \"contracts/UserRegistry.sol\":882:895  _profileImage */\n      dup5\n        /* \"contracts/UserRegistry.sol\":746:945  User({... */\n      dup2\n      mstore\n      0x20\n      add\n        /* \"contracts/UserRegistry.sol\":922:933  _reputation */\n      dup4\n        /* \"contracts/UserRegistry.sol\":746:945  User({... */\n      dup2\n      mstore\n      pop\n        /* \"contracts/UserRegistry.sol\":724:945  User memory newUser = User({... */\n      swap1\n      pop\n        /* \"contracts/UserRegistry.sol\":1017:1024  newUser */\n      dup1\n        /* \"contracts/UserRegistry.sol\":997:1002  users */\n      0x00\n        /* \"contracts/UserRegistry.sol\":997:1014  users[msg.sender] */\n      dup1\n        /* \"contracts/UserRegistry.sol\":1003:1013  msg.sender */\n      caller\n        /* \"contracts/UserRegistry.sol\":997:1014  users[msg.sender] */\n      0xffffffffffffffffffffffffffffffffffffffff\n      and\n      0xffffffffffffffffffffffffffffffffffffffff\n      and\n      dup2\n      mstore\n      0x20\n      add\n      swap1\n      dup2\n      mstore\n      0x20\n      add\n      0x00\n      keccak256\n        /* \"contracts/UserRegistry.sol\":997:1024  users[msg.sender] = newUser */\n      0x00\n      dup3\n      add\n      mload\n      dup2\n      0x00\n      add\n      swap1\n      dup2\n      tag_22\n      swap2\n      swap1\n      tag_23\n      jump\t// in\n    tag_22:\n      pop\n      0x20\n      dup3\n      add\n      mload\n      dup2\n      0x01\n      add\n      swap1\n      dup2\n      tag_24\n      swap2\n      swap1\n      tag_23\n      jump\t// in\n    tag_24:\n      pop\n      0x40\n      dup3\n      add\n      mload\n      dup2\n      0x02\n      add\n      swap1\n      dup2\n      tag_25\n      swap2\n      swap1\n      tag_23\n      jump\t// in\n    tag_25:\n      pop\n      0x60\n      dup3\n      add\n      mload\n      dup2\n      0x03\n      add\n      swap1\n      dup2\n      tag_26\n      swap2\n      swap1\n      tag_23\n      jump\t// in\n    tag_26:\n      pop\n      0x80\n      dup3\n      add\n      mload\n      dup2\n      0x04\n      add\n      sstore\n      swap1\n      pop\n      pop\n        /* \"contracts/UserRegistry.sol\":1105:1115  msg.sender */\n      caller\n        /* \"contracts/UserRegistry.sol\":1090:1127  UserRegistered(msg.sender, _username) */\n      0xffffffffffffffffffffffffffffffffffffffff\n      and\n      0x48cac28ad4dc618e15f4c2dd5e97751182f166de97b25618318b2112aa951a2f\n        /* \"contracts/UserRegistry.sol\":1117:1126  _username */\n      dup8\n        /* \"contracts/UserRegistry.sol\":1090:1127  UserRegistered(msg.sender, _username) */\n      mload(0x40)\n      tag_27\n      swap2\n      swap1\n      tag_28\n      jump\t// in\n    tag_27:\n      mload(0x40)\n      dup1\n      swap2\n      sub\n      swap1\n      log2\n        /* \"contracts/UserRegistry.sol\":530:1135  {... */\n      pop\n        /* \"contracts/UserRegistry.sol\":376:1135  function registerUser(string memory _username, string memory _email, string memory _phoneNumber, string memory _profileImage, uint256 _reputation) public {... */\n      pop\n      pop\n      pop\n      pop\n      pop\n      jump\t// out\n        /* \"contracts/UserRegistry.sol\":255:292  mapping(address => User) public users */\n    tag_12:\n      mstore(0x20, 0x00)\n      dup1\n      0x00\n      mstore\n      keccak256(0x00, 0x40)\n      0x00\n      swap2\n      pop\n      swap1\n      pop\n      dup1\n      0x00\n      add\n      dup1\n      sload\n      tag_29\n      swap1\n      tag_30\n      jump\t// in\n    tag_29:\n      dup1\n      0x1f\n      add\n      0x20\n      dup1\n      swap2\n      div\n      mul\n      0x20\n      add\n      mload(0x40)\n      swap1\n      dup2\n      add\n      0x40\n      mstore\n      dup1\n      swap3\n      swap2\n      swap1\n      dup2\n      dup2\n      mstore\n      0x20\n      add\n      dup3\n      dup1\n      sload\n      tag_31\n      swap1\n      tag_30\n      jump\t// in\n    tag_31:\n      dup1\n      iszero\n      tag_32\n      jumpi\n      dup1\n      0x1f\n      lt\n      tag_33\n      jumpi\n      0x0100\n      dup1\n      dup4\n      sload\n      div\n      mul\n      dup4\n      mstore\n      swap2\n      0x20\n      add\n      swap2\n      jump(tag_32)\n    tag_33:\n      dup3\n      add\n      swap2\n      swap1\n      0x00\n      mstore\n      keccak256(0x00, 0x20)\n      swap1\n    tag_34:\n      dup2\n      sload\n      dup2\n      mstore\n      swap1\n      0x01\n      add\n      swap1\n      0x20\n      add\n      dup1\n      dup4\n      gt\n      tag_34\n      jumpi\n      dup3\n      swap1\n      sub\n      0x1f\n      and\n      dup3\n      add\n      swap2\n    tag_32:\n      pop\n      pop\n      pop\n      pop\n      pop\n      swap1\n      dup1\n      0x01\n      add\n      dup1\n      sload\n      tag_35\n      swap1\n      tag_30\n      jump\t// in\n    tag_35:\n      dup1\n      0x1f\n      add\n      0x20\n      dup1\n      swap2\n      div\n      mul\n      0x20\n      add\n      mload(0x40)\n      swap1\n      dup2\n      add\n      0x40\n      mstore\n      dup1\n      swap3\n      swap2\n      swap1\n      dup2\n      dup2\n      mstore\n      0x20\n      add\n      dup3\n      dup1\n      sload\n      tag_36\n      swap1\n      tag_30\n      jump\t// in\n    tag_36:\n      dup1\n      iszero\n      tag_37\n      jumpi\n      dup1\n      0x1f\n      lt\n      tag_38\n      jumpi\n      0x0100\n      dup1\n      dup4\n      sload\n      div\n      mul\n      dup4\n      mstore\n      swap2\n      0x20\n      add\n      swap2\n      jump(tag_37)\n    tag_38:\n      dup3\n      add\n      swap2\n      swap1\n      0x00\n      mstore\n      keccak256(0x00, 0x20)\n      swap1\n    tag_39:\n      dup2\n      sload\n      dup2\n      mstore\n      swap1\n      0x01\n      add\n      swap1\n      0x20\n      add\n      dup1\n      dup4\n      gt\n      tag_39\n      jumpi\n      dup3\n      swap1\n      sub\n      0x1f\n      and\n      dup3\n      add\n      swap2\n    tag_37:\n      pop\n      pop\n      pop\n      pop\n      pop\n      swap1\n      dup1\n      0x02\n      add\n      dup1\n      sload\n      tag_40\n      swap1\n      tag_30\n      jump\t// in\n    tag_40:\n      dup1\n      0x1f\n      add\n      0x20\n      dup1\n      swap2\n      div\n      mul\n      0x20\n      add\n      mload(0x40)\n      swap1\n      dup2\n      add\n      0x40\n      mstore\n      dup1\n      swap3\n      swap2\n      swap1\n      dup2\n      dup2\n      mstore\n      0x20\n      add\n      dup3\n      dup1\n      sload\n      tag_41\n      swap1\n      tag_30\n      jump\t// in\n    tag_41:\n      dup1\n      iszero\n      tag_42\n      jumpi\n      dup1\n      0x1f\n      lt\n      tag_43\n      jumpi\n      0x0100\n      dup1\n      dup4\n      sload\n      div\n      mul\n      dup4\n      mstore\n      swap2\n      0x20\n      add\n      swap2\n      jump(tag_42)\n    tag_43:\n      dup3\n      add\n      swap2\n      swap1\n      0x00\n      mstore\n      keccak256(0x00, 0x20)\n      swap1\n    tag_44:\n      dup2\n      sload\n      dup2\n      mstore\n      swap1\n      0x01\n      add\n      swap1\n      0x20\n      add\n      dup1\n      dup4\n      gt\n      tag_44\n      jumpi\n      dup3\n      swap1\n      sub\n      0x1f\n      and\n      dup3\n      add\n      swap2\n    tag_42:\n      pop\n      pop\n      pop\n      pop\n      pop\n      swap1\n      dup1\n      0x03\n      add\n      dup1\n      sload\n      tag_45\n      swap1\n      tag_30\n      jump\t// in\n    tag_45:\n      dup1\n      0x1f\n      add\n      0x20\n      dup1\n      swap2\n      div\n      mul\n      0x20\n      add\n      mload(0x40)\n      swap1\n      dup2\n      add\n      0x40\n      mstore\n      dup1\n      swap3\n      swap2\n      swap1\n      dup2\n      dup2\n      mstore\n      0x20\n      add\n      dup3\n      dup1\n      sload\n      tag_46\n      swap1\n      tag_30\n      jump\t// in\n    tag_46:\n      dup1\n      iszero\n      tag_47\n      jumpi\n      dup1\n      0x1f\n      lt\n      tag_48\n      jumpi\n      0x0100\n      dup1\n      dup4\n      sload\n      div\n      mul\n      dup4\n      mstore\n      swap2\n      0x20\n      add\n      swap2\n      jump(tag_47)\n    tag_48:\n      dup3\n      add\n      swap2\n      swap1\n      0x00\n      mstore\n      keccak256(0x00, 0x20)\n      swap1\n    tag_49:\n      dup2\n      sload\n      dup2\n      mstore\n      swap1\n      0x01\n      add\n      swap1\n      0x20\n      add\n      dup1\n      dup4\n      gt\n      tag_49\n      jumpi\n      dup3\n      swap1\n      sub\n      0x1f\n      and\n      dup3\n      add\n      swap2\n    tag_47:\n      pop\n      pop\n      pop\n      pop\n      pop\n      swap1\n      dup1\n      0x04\n      add\n      sload\n      swap1\n      pop\n      dup6\n      jump\t// out\n        /* \"#utility.yul\":7:82   */\n    tag_50:\n        /* \"#utility.yul\":40:46   */\n      0x00\n        /* \"#utility.yul\":73:75   */\n      0x40\n        /* \"#utility.yul\":67:76   */\n      mload\n        /* \"#utility.yul\":57:76   */\n      swap1\n      pop\n        /* \"#utility.yul\":7:82   */\n      swap1\n      jump\t// out\n        /* \"#utility.yul\":88:205   */\n    tag_51:\n        /* \"#utility.yul\":197:198   */\n      0x00\n        /* \"#utility.yul\":194:195   */\n      dup1\n        /* \"#utility.yul\":187:199   */\n      revert\n        /* \"#utility.yul\":211:328   */\n    tag_52:\n        /* \"#utility.yul\":320:321   */\n      0x00\n        /* \"#utility.yul\":317:318   */\n      dup1\n        /* \"#utility.yul\":310:322   */\n      revert\n        /* \"#utility.yul\":334:451   */\n    tag_53:\n        /* \"#utility.yul\":443:444   */\n      0x00\n        /* \"#utility.yul\":440:441   */\n      dup1\n        /* \"#utility.yul\":433:445   */\n      revert\n        /* \"#utility.yul\":457:574   */\n    tag_54:\n        /* \"#utility.yul\":566:567   */\n      0x00\n        /* \"#utility.yul\":563:564   */\n      dup1\n        /* \"#utility.yul\":556:568   */\n      revert\n        /* \"#utility.yul\":580:682   */\n    tag_55:\n        /* \"#utility.yul\":621:627   */\n      0x00\n        /* \"#utility.yul\":672:674   */\n      0x1f\n        /* \"#utility.yul\":668:675   */\n      not\n        /* \"#utility.yul\":663:665   */\n      0x1f\n        /* \"#utility.yul\":656:661   */\n      dup4\n        /* \"#utility.yul\":652:666   */\n      add\n        /* \"#utility.yul\":648:676   */\n      and\n        /* \"#utility.yul\":638:676   */\n      swap1\n      pop\n        /* \"#utility.yul\":580:682   */\n      swap2\n      swap1\n      pop\n      jump\t// out\n        /* \"#utility.yul\":688:868   */\n    tag_56:\n        /* \"#utility.yul\":736:813   */\n      0x4e487b7100000000000000000000000000000000000000000000000000000000\n        /* \"#utility.yul\":733:734   */\n      0x00\n        /* \"#utility.yul\":726:814   */\n      mstore\n        /* \"#utility.yul\":833:837   */\n      0x41\n        /* \"#utility.yul\":830:831   */\n      0x04\n        /* \"#utility.yul\":823:838   */\n      mstore\n        /* \"#utility.yul\":857:861   */\n      0x24\n        /* \"#utility.yul\":854:855   */\n      0x00\n        /* \"#utility.yul\":847:862   */\n      revert\n        /* \"#utility.yul\":874:1155   */\n    tag_57:\n        /* \"#utility.yul\":957:984   */\n      tag_104\n        /* \"#utility.yul\":979:983   */\n      dup3\n        /* \"#utility.yul\":957:984   */\n      tag_55\n      jump\t// in\n    tag_104:\n        /* \"#utility.yul\":949:955   */\n      dup2\n        /* \"#utility.yul\":945:985   */\n      add\n        /* \"#utility.yul\":1087:1093   */\n      dup2\n        /* \"#utility.yul\":1075:1085   */\n      dup2\n        /* \"#utility.yul\":1072:1094   */\n      lt\n        /* \"#utility.yul\":1051:1069   */\n      0xffffffffffffffff\n        /* \"#utility.yul\":1039:1049   */\n      dup3\n        /* \"#utility.yul\":1036:1070   */\n      gt\n        /* \"#utility.yul\":1033:1095   */\n      or\n        /* \"#utility.yul\":1030:1118   */\n      iszero\n      tag_105\n      jumpi\n        /* \"#utility.yul\":1098:1116   */\n      tag_106\n      tag_56\n      jump\t// in\n    tag_106:\n        /* \"#utility.yul\":1030:1118   */\n    tag_105:\n        /* \"#utility.yul\":1138:1148   */\n      dup1\n        /* \"#utility.yul\":1134:1136   */\n      0x40\n        /* \"#utility.yul\":1127:1149   */\n      mstore\n        /* \"#utility.yul\":917:1155   */\n      pop\n        /* \"#utility.yul\":874:1155   */\n      pop\n      pop\n      jump\t// out\n        /* \"#utility.yul\":1161:1290   */\n    tag_58:\n        /* \"#utility.yul\":1195:1201   */\n      0x00\n        /* \"#utility.yul\":1222:1242   */\n      tag_108\n      tag_50\n      jump\t// in\n    tag_108:\n        /* \"#utility.yul\":1212:1242   */\n      swap1\n      pop\n        /* \"#utility.yul\":1251:1284   */\n      tag_109\n        /* \"#utility.yul\":1279:1283   */\n      dup3\n        /* \"#utility.yul\":1271:1277   */\n      dup3\n        /* \"#utility.yul\":1251:1284   */\n      tag_57\n      jump\t// in\n    tag_109:\n        /* \"#utility.yul\":1161:1290   */\n      swap2\n      swap1\n      pop\n      jump\t// out\n        /* \"#utility.yul\":1296:1604   */\n    tag_59:\n        /* \"#utility.yul\":1358:1362   */\n      0x00\n        /* \"#utility.yul\":1448:1466   */\n      0xffffffffffffffff\n        /* \"#utility.yul\":1440:1446   */\n      dup3\n        /* \"#utility.yul\":1437:1467   */\n      gt\n        /* \"#utility.yul\":1434:1490   */\n      iszero\n      tag_111\n      jumpi\n        /* \"#utility.yul\":1470:1488   */\n      tag_112\n      tag_56\n      jump\t// in\n    tag_112:\n        /* \"#utility.yul\":1434:1490   */\n    tag_111:\n        /* \"#utility.yul\":1508:1537   */\n      tag_113\n        /* \"#utility.yul\":1530:1536   */\n      dup3\n        /* \"#utility.yul\":1508:1537   */\n      tag_55\n      jump\t// in\n    tag_113:\n        /* \"#utility.yul\":1500:1537   */\n      swap1\n      pop\n        /* \"#utility.yul\":1592:1596   */\n      0x20\n        /* \"#utility.yul\":1586:1590   */\n      dup2\n        /* \"#utility.yul\":1582:1597   */\n      add\n        /* \"#utility.yul\":1574:1597   */\n      swap1\n      pop\n        /* \"#utility.yul\":1296:1604   */\n      swap2\n      swap1\n      pop\n      jump\t// out\n        /* \"#utility.yul\":1610:1756   */\n    tag_60:\n        /* \"#utility.yul\":1707:1713   */\n      dup3\n        /* \"#utility.yul\":1702:1705   */\n      dup2\n        /* \"#utility.yul\":1697:1700   */\n      dup4\n        /* \"#utility.yul\":1684:1714   */\n      calldatacopy\n        /* \"#utility.yul\":1748:1749   */\n      0x00\n        /* \"#utility.yul\":1739:1745   */\n      dup4\n        /* \"#utility.yul\":1734:1737   */\n      dup4\n        /* \"#utility.yul\":1730:1746   */\n      add\n        /* \"#utility.yul\":1723:1750   */\n      mstore\n        /* \"#utility.yul\":1610:1756   */\n      pop\n      pop\n      pop\n      jump\t// out\n        /* \"#utility.yul\":1762:2187   */\n    tag_61:\n        /* \"#utility.yul\":1840:1845   */\n      0x00\n        /* \"#utility.yul\":1865:1931   */\n      tag_116\n        /* \"#utility.yul\":1881:1930   */\n      tag_117\n        /* \"#utility.yul\":1923:1929   */\n      dup5\n        /* \"#utility.yul\":1881:1930   */\n      tag_59\n      jump\t// in\n    tag_117:\n        /* \"#utility.yul\":1865:1931   */\n      tag_58\n      jump\t// in\n    tag_116:\n        /* \"#utility.yul\":1856:1931   */\n      swap1\n      pop\n        /* \"#utility.yul\":1954:1960   */\n      dup3\n        /* \"#utility.yul\":1947:1952   */\n      dup2\n        /* \"#utility.yul\":1940:1961   */\n      mstore\n        /* \"#utility.yul\":1992:1996   */\n      0x20\n        /* \"#utility.yul\":1985:1990   */\n      dup2\n        /* \"#utility.yul\":1981:1997   */\n      add\n        /* \"#utility.yul\":2030:2033   */\n      dup5\n        /* \"#utility.yul\":2021:2027   */\n      dup5\n        /* \"#utility.yul\":2016:2019   */\n      dup5\n        /* \"#utility.yul\":2012:2028   */\n      add\n        /* \"#utility.yul\":2009:2034   */\n      gt\n        /* \"#utility.yul\":2006:2118   */\n      iszero\n      tag_118\n      jumpi\n        /* \"#utility.yul\":2037:2116   */\n      tag_119\n      tag_54\n      jump\t// in\n    tag_119:\n        /* \"#utility.yul\":2006:2118   */\n    tag_118:\n        /* \"#utility.yul\":2127:2181   */\n      tag_120\n        /* \"#utility.yul\":2174:2180   */\n      dup5\n        /* \"#utility.yul\":2169:2172   */\n      dup3\n        /* \"#utility.yul\":2164:2167   */\n      dup6\n        /* \"#utility.yul\":2127:2181   */\n      tag_60\n      jump\t// in\n    tag_120:\n        /* \"#utility.yul\":1846:2187   */\n      pop\n        /* \"#utility.yul\":1762:2187   */\n      swap4\n      swap3\n      pop\n      pop\n      pop\n      jump\t// out\n        /* \"#utility.yul\":2207:2547   */\n    tag_62:\n        /* \"#utility.yul\":2263:2268   */\n      0x00\n        /* \"#utility.yul\":2312:2315   */\n      dup3\n        /* \"#utility.yul\":2305:2309   */\n      0x1f\n        /* \"#utility.yul\":2297:2303   */\n      dup4\n        /* \"#utility.yul\":2293:2310   */\n      add\n        /* \"#utility.yul\":2289:2316   */\n      slt\n        /* \"#utility.yul\":2279:2401   */\n      tag_122\n      jumpi\n        /* \"#utility.yul\":2320:2399   */\n      tag_123\n      tag_53\n      jump\t// in\n    tag_123:\n        /* \"#utility.yul\":2279:2401   */\n    tag_122:\n        /* \"#utility.yul\":2437:2443   */\n      dup2\n        /* \"#utility.yul\":2424:2444   */\n      calldataload\n        /* \"#utility.yul\":2462:2541   */\n      tag_124\n        /* \"#utility.yul\":2537:2540   */\n      dup5\n        /* \"#utility.yul\":2529:2535   */\n      dup3\n        /* \"#utility.yul\":2522:2526   */\n      0x20\n        /* \"#utility.yul\":2514:2520   */\n      dup7\n        /* \"#utility.yul\":2510:2527   */\n      add\n        /* \"#utility.yul\":2462:2541   */\n      tag_61\n      jump\t// in\n    tag_124:\n        /* \"#utility.yul\":2453:2541   */\n      swap2\n      pop\n        /* \"#utility.yul\":2269:2547   */\n      pop\n        /* \"#utility.yul\":2207:2547   */\n      swap3\n      swap2\n      pop\n      pop\n      jump\t// out\n        /* \"#utility.yul\":2553:2630   */\n    tag_63:\n        /* \"#utility.yul\":2590:2597   */\n      0x00\n        /* \"#utility.yul\":2619:2624   */\n      dup2\n        /* \"#utility.yul\":2608:2624   */\n      swap1\n      pop\n        /* \"#utility.yul\":2553:2630   */\n      swap2\n      swap1\n      pop\n      jump\t// out\n        /* \"#utility.yul\":2636:2758   */\n    tag_64:\n        /* \"#utility.yul\":2709:2733   */\n      tag_127\n        /* \"#utility.yul\":2727:2732   */\n      dup2\n        /* \"#utility.yul\":2709:2733   */\n      tag_63\n      jump\t// in\n    tag_127:\n        /* \"#utility.yul\":2702:2707   */\n      dup2\n        /* \"#utility.yul\":2699:2734   */\n      eq\n        /* \"#utility.yul\":2689:2752   */\n      tag_128\n      jumpi\n        /* \"#utility.yul\":2748:2749   */\n      0x00\n        /* \"#utility.yul\":2745:2746   */\n      dup1\n        /* \"#utility.yul\":2738:2750   */\n      revert\n        /* \"#utility.yul\":2689:2752   */\n    tag_128:\n        /* \"#utility.yul\":2636:2758   */\n      pop\n      jump\t// out\n        /* \"#utility.yul\":2764:2903   */\n    tag_65:\n        /* \"#utility.yul\":2810:2815   */\n      0x00\n        /* \"#utility.yul\":2848:2854   */\n      dup2\n        /* \"#utility.yul\":2835:2855   */\n      calldataload\n        /* \"#utility.yul\":2826:2855   */\n      swap1\n      pop\n        /* \"#utility.yul\":2864:2897   */\n      tag_130\n        /* \"#utility.yul\":2891:2896   */\n      dup2\n        /* \"#utility.yul\":2864:2897   */\n      tag_64\n      jump\t// in\n    tag_130:\n        /* \"#utility.yul\":2764:2903   */\n      swap3\n      swap2\n      pop\n      pop\n      jump\t// out\n        /* \"#utility.yul\":2909:4540   */\n    tag_7:\n        /* \"#utility.yul\":3044:3050   */\n      0x00\n        /* \"#utility.yul\":3052:3058   */\n      dup1\n        /* \"#utility.yul\":3060:3066   */\n      0x00\n        /* \"#utility.yul\":3068:3074   */\n      dup1\n        /* \"#utility.yul\":3076:3082   */\n      0x00\n        /* \"#utility.yul\":3125:3128   */\n      0xa0\n        /* \"#utility.yul\":3113:3122   */\n      dup7\n        /* \"#utility.yul\":3104:3111   */\n      dup9\n        /* \"#utility.yul\":3100:3123   */\n      sub\n        /* \"#utility.yul\":3096:3129   */\n      slt\n        /* \"#utility.yul\":3093:3213   */\n      iszero\n      tag_132\n      jumpi\n        /* \"#utility.yul\":3132:3211   */\n      tag_133\n      tag_51\n      jump\t// in\n    tag_133:\n        /* \"#utility.yul\":3093:3213   */\n    tag_132:\n        /* \"#utility.yul\":3280:3281   */\n      0x00\n        /* \"#utility.yul\":3269:3278   */\n      dup7\n        /* \"#utility.yul\":3265:3282   */\n      add\n        /* \"#utility.yul\":3252:3283   */\n      calldataload\n        /* \"#utility.yul\":3310:3328   */\n      0xffffffffffffffff\n        /* \"#utility.yul\":3302:3308   */\n      dup2\n        /* \"#utility.yul\":3299:3329   */\n      gt\n        /* \"#utility.yul\":3296:3413   */\n      iszero\n      tag_134\n      jumpi\n        /* \"#utility.yul\":3332:3411   */\n      tag_135\n      tag_52\n      jump\t// in\n    tag_135:\n        /* \"#utility.yul\":3296:3413   */\n    tag_134:\n        /* \"#utility.yul\":3437:3500   */\n      tag_136\n        /* \"#utility.yul\":3492:3499   */\n      dup9\n        /* \"#utility.yul\":3483:3489   */\n      dup3\n        /* \"#utility.yul\":3472:3481   */\n      dup10\n        /* \"#utility.yul\":3468:3490   */\n      add\n        /* \"#utility.yul\":3437:3500   */\n      tag_62\n      jump\t// in\n    tag_136:\n        /* \"#utility.yul\":3427:3500   */\n      swap6\n      pop\n        /* \"#utility.yul\":3223:3510   */\n      pop\n        /* \"#utility.yul\":3577:3579   */\n      0x20\n        /* \"#utility.yul\":3566:3575   */\n      dup7\n        /* \"#utility.yul\":3562:3580   */\n      add\n        /* \"#utility.yul\":3549:3581   */\n      calldataload\n        /* \"#utility.yul\":3608:3626   */\n      0xffffffffffffffff\n        /* \"#utility.yul\":3600:3606   */\n      dup2\n        /* \"#utility.yul\":3597:3627   */\n      gt\n        /* \"#utility.yul\":3594:3711   */\n      iszero\n      tag_137\n      jumpi\n        /* \"#utility.yul\":3630:3709   */\n      tag_138\n      tag_52\n      jump\t// in\n    tag_138:\n        /* \"#utility.yul\":3594:3711   */\n    tag_137:\n        /* \"#utility.yul\":3735:3798   */\n      tag_139\n        /* \"#utility.yul\":3790:3797   */\n      dup9\n        /* \"#utility.yul\":3781:3787   */\n      dup3\n        /* \"#utility.yul\":3770:3779   */\n      dup10\n        /* \"#utility.yul\":3766:3788   */\n      add\n        /* \"#utility.yul\":3735:3798   */\n      tag_62\n      jump\t// in\n    tag_139:\n        /* \"#utility.yul\":3725:3798   */\n      swap5\n      pop\n        /* \"#utility.yul\":3520:3808   */\n      pop\n        /* \"#utility.yul\":3875:3877   */\n      0x40\n        /* \"#utility.yul\":3864:3873   */\n      dup7\n        /* \"#utility.yul\":3860:3878   */\n      add\n        /* \"#utility.yul\":3847:3879   */\n      calldataload\n        /* \"#utility.yul\":3906:3924   */\n      0xffffffffffffffff\n        /* \"#utility.yul\":3898:3904   */\n      dup2\n        /* \"#utility.yul\":3895:3925   */\n      gt\n        /* \"#utility.yul\":3892:4009   */\n      iszero\n      tag_140\n      jumpi\n        /* \"#utility.yul\":3928:4007   */\n      tag_141\n      tag_52\n      jump\t// in\n    tag_141:\n        /* \"#utility.yul\":3892:4009   */\n    tag_140:\n        /* \"#utility.yul\":4033:4096   */\n      tag_142\n        /* \"#utility.yul\":4088:4095   */\n      dup9\n        /* \"#utility.yul\":4079:4085   */\n      dup3\n        /* \"#utility.yul\":4068:4077   */\n      dup10\n        /* \"#utility.yul\":4064:4086   */\n      add\n        /* \"#utility.yul\":4033:4096   */\n      tag_62\n      jump\t// in\n    tag_142:\n        /* \"#utility.yul\":4023:4096   */\n      swap4\n      pop\n        /* \"#utility.yul\":3818:4106   */\n      pop\n        /* \"#utility.yul\":4173:4175   */\n      0x60\n        /* \"#utility.yul\":4162:4171   */\n      dup7\n        /* \"#utility.yul\":4158:4176   */\n      add\n        /* \"#utility.yul\":4145:4177   */\n      calldataload\n        /* \"#utility.yul\":4204:4222   */\n      0xffffffffffffffff\n        /* \"#utility.yul\":4196:4202   */\n      dup2\n        /* \"#utility.yul\":4193:4223   */\n      gt\n        /* \"#utility.yul\":4190:4307   */\n      iszero\n      tag_143\n      jumpi\n        /* \"#utility.yul\":4226:4305   */\n      tag_144\n      tag_52\n      jump\t// in\n    tag_144:\n        /* \"#utility.yul\":4190:4307   */\n    tag_143:\n        /* \"#utility.yul\":4331:4394   */\n      tag_145\n        /* \"#utility.yul\":4386:4393   */\n      dup9\n        /* \"#utility.yul\":4377:4383   */\n      dup3\n        /* \"#utility.yul\":4366:4375   */\n      dup10\n        /* \"#utility.yul\":4362:4384   */\n      add\n        /* \"#utility.yul\":4331:4394   */\n      tag_62\n      jump\t// in\n    tag_145:\n        /* \"#utility.yul\":4321:4394   */\n      swap3\n      pop\n        /* \"#utility.yul\":4116:4404   */\n      pop\n        /* \"#utility.yul\":4443:4446   */\n      0x80\n        /* \"#utility.yul\":4470:4523   */\n      tag_146\n        /* \"#utility.yul\":4515:4522   */\n      dup9\n        /* \"#utility.yul\":4506:4512   */\n      dup3\n        /* \"#utility.yul\":4495:4504   */\n      dup10\n        /* \"#utility.yul\":4491:4513   */\n      add\n        /* \"#utility.yul\":4470:4523   */\n      tag_65\n      jump\t// in\n    tag_146:\n        /* \"#utility.yul\":4460:4523   */\n      swap2\n      pop\n        /* \"#utility.yul\":4414:4533   */\n      pop\n        /* \"#utility.yul\":2909:4540   */\n      swap3\n      swap6\n      pop\n      swap3\n      swap6\n      swap1\n      swap4\n      pop\n      jump\t// out\n        /* \"#utility.yul\":4546:4672   */\n    tag_66:\n        /* \"#utility.yul\":4583:4590   */\n      0x00\n        /* \"#utility.yul\":4623:4665   */\n      0xffffffffffffffffffffffffffffffffffffffff\n        /* \"#utility.yul\":4616:4621   */\n      dup3\n        /* \"#utility.yul\":4612:4666   */\n      and\n        /* \"#utility.yul\":4601:4666   */\n      swap1\n      pop\n        /* \"#utility.yul\":4546:4672   */\n      swap2\n      swap1\n      pop\n      jump\t// out\n        /* \"#utility.yul\":4678:4774   */\n    tag_67:\n        /* \"#utility.yul\":4715:4722   */\n      0x00\n        /* \"#utility.yul\":4744:4768   */\n      tag_149\n        /* \"#utility.yul\":4762:4767   */\n      dup3\n        /* \"#utility.yul\":4744:4768   */\n      tag_66\n      jump\t// in\n    tag_149:\n        /* \"#utility.yul\":4733:4768   */\n      swap1\n      pop\n        /* \"#utility.yul\":4678:4774   */\n      swap2\n      swap1\n      pop\n      jump\t// out\n        /* \"#utility.yul\":4780:4902   */\n    tag_68:\n        /* \"#utility.yul\":4853:4877   */\n      tag_151\n        /* \"#utility.yul\":4871:4876   */\n      dup2\n        /* \"#utility.yul\":4853:4877   */\n      tag_67\n      jump\t// in\n    tag_151:\n        /* \"#utility.yul\":4846:4851   */\n      dup2\n        /* \"#utility.yul\":4843:4878   */\n      eq\n        /* \"#utility.yul\":4833:4896   */\n      tag_152\n      jumpi\n        /* \"#utility.yul\":4892:4893   */\n      0x00\n        /* \"#utility.yul\":4889:4890   */\n      dup1\n        /* \"#utility.yul\":4882:4894   */\n      revert\n        /* \"#utility.yul\":4833:4896   */\n    tag_152:\n        /* \"#utility.yul\":4780:4902   */\n      pop\n      jump\t// out\n        /* \"#utility.yul\":4908:5047   */\n    tag_69:\n        /* \"#utility.yul\":4954:4959   */\n      0x00\n        /* \"#utility.yul\":4992:4998   */\n      dup2\n        /* \"#utility.yul\":4979:4999   */\n      calldataload\n        /* \"#utility.yul\":4970:4999   */\n      swap1\n      pop\n        /* \"#utility.yul\":5008:5041   */\n      tag_154\n        /* \"#utility.yul\":5035:5040   */\n      dup2\n        /* \"#utility.yul\":5008:5041   */\n      tag_68\n      jump\t// in\n    tag_154:\n        /* \"#utility.yul\":4908:5047   */\n      swap3\n      swap2\n      pop\n      pop\n      jump\t// out\n        /* \"#utility.yul\":5053:5382   */\n    tag_11:\n        /* \"#utility.yul\":5112:5118   */\n      0x00\n        /* \"#utility.yul\":5161:5163   */\n      0x20\n        /* \"#utility.yul\":5149:5158   */\n      dup3\n        /* \"#utility.yul\":5140:5147   */\n      dup5\n        /* \"#utility.yul\":5136:5159   */\n      sub\n        /* \"#utility.yul\":5132:5164   */\n      slt\n        /* \"#utility.yul\":5129:5248   */\n      iszero\n      tag_156\n      jumpi\n        /* \"#utility.yul\":5167:5246   */\n      tag_157\n      tag_51\n      jump\t// in\n    tag_157:\n        /* \"#utility.yul\":5129:5248   */\n    tag_156:\n        /* \"#utility.yul\":5287:5288   */\n      0x00\n        /* \"#utility.yul\":5312:5365   */\n      tag_158\n        /* \"#utility.yul\":5357:5364   */\n      dup5\n        /* \"#utility.yul\":5348:5354   */\n      dup3\n        /* \"#utility.yul\":5337:5346   */\n      dup6\n        /* \"#utility.yul\":5333:5355   */\n      add\n        /* \"#utility.yul\":5312:5365   */\n      tag_69\n      jump\t// in\n    tag_158:\n        /* \"#utility.yul\":5302:5365   */\n      swap2\n      pop\n        /* \"#utility.yul\":5258:5375   */\n      pop\n        /* \"#utility.yul\":5053:5382   */\n      swap3\n      swap2\n      pop\n      pop\n      jump\t// out\n        /* \"#utility.yul\":5388:5487   */\n    tag_70:\n        /* \"#utility.yul\":5440:5446   */\n      0x00\n        /* \"#utility.yul\":5474:5479   */\n      dup2\n        /* \"#utility.yul\":5468:5480   */\n      mload\n        /* \"#utility.yul\":5458:5480   */\n      swap1\n      pop\n        /* \"#utility.yul\":5388:5487   */\n      swap2\n      swap1\n      pop\n      jump\t// out\n        /* \"#utility.yul\":5493:5662   */\n    tag_71:\n        /* \"#utility.yul\":5577:5588   */\n      0x00\n        /* \"#utility.yul\":5611:5617   */\n      dup3\n        /* \"#utility.yul\":5606:5609   */\n      dup3\n        /* \"#utility.yul\":5599:5618   */\n      mstore\n        /* \"#utility.yul\":5651:5655   */\n      0x20\n        /* \"#utility.yul\":5646:5649   */\n      dup3\n        /* \"#utility.yul\":5642:5656   */\n      add\n        /* \"#utility.yul\":5627:5656   */\n      swap1\n      pop\n        /* \"#utility.yul\":5493:5662   */\n      swap3\n      swap2\n      pop\n      pop\n      jump\t// out\n        /* \"#utility.yul\":5668:5914   */\n    tag_72:\n        /* \"#utility.yul\":5749:5750   */\n      0x00\n        /* \"#utility.yul\":5759:5872   */\n    tag_162:\n        /* \"#utility.yul\":5773:5779   */\n      dup4\n        /* \"#utility.yul\":5770:5771   */\n      dup2\n        /* \"#utility.yul\":5767:5780   */\n      lt\n        /* \"#utility.yul\":5759:5872   */\n      iszero\n      tag_164\n      jumpi\n        /* \"#utility.yul\":5858:5859   */\n      dup1\n        /* \"#utility.yul\":5853:5856   */\n      dup3\n        /* \"#utility.yul\":5849:5860   */\n      add\n        /* \"#utility.yul\":5843:5861   */\n      mload\n        /* \"#utility.yul\":5839:5840   */\n      dup2\n        /* \"#utility.yul\":5834:5837   */\n      dup5\n        /* \"#utility.yul\":5830:5841   */\n      add\n        /* \"#utility.yul\":5823:5862   */\n      mstore\n        /* \"#utility.yul\":5795:5797   */\n      0x20\n        /* \"#utility.yul\":5792:5793   */\n      dup2\n        /* \"#utility.yul\":5788:5798   */\n      add\n        /* \"#utility.yul\":5783:5798   */\n      swap1\n      pop\n        /* \"#utility.yul\":5759:5872   */\n      jump(tag_162)\n    tag_164:\n        /* \"#utility.yul\":5906:5907   */\n      0x00\n        /* \"#utility.yul\":5897:5903   */\n      dup5\n        /* \"#utility.yul\":5892:5895   */\n      dup5\n        /* \"#utility.yul\":5888:5904   */\n      add\n        /* \"#utility.yul\":5881:5908   */\n      mstore\n        /* \"#utility.yul\":5730:5914   */\n      pop\n        /* \"#utility.yul\":5668:5914   */\n      pop\n      pop\n      pop\n      jump\t// out\n        /* \"#utility.yul\":5920:6297   */\n    tag_73:\n        /* \"#utility.yul\":6008:6011   */\n      0x00\n        /* \"#utility.yul\":6036:6075   */\n      tag_166\n        /* \"#utility.yul\":6069:6074   */\n      dup3\n        /* \"#utility.yul\":6036:6075   */\n      tag_70\n      jump\t// in\n    tag_166:\n        /* \"#utility.yul\":6091:6162   */\n      tag_167\n        /* \"#utility.yul\":6155:6161   */\n      dup2\n        /* \"#utility.yul\":6150:6153   */\n      dup6\n        /* \"#utility.yul\":6091:6162   */\n      tag_71\n      jump\t// in\n    tag_167:\n        /* \"#utility.yul\":6084:6162   */\n      swap4\n      pop\n        /* \"#utility.yul\":6171:6236   */\n      tag_168\n        /* \"#utility.yul\":6229:6235   */\n      dup2\n        /* \"#utility.yul\":6224:6227   */\n      dup6\n        /* \"#utility.yul\":6217:6221   */\n      0x20\n        /* \"#utility.yul\":6210:6215   */\n      dup7\n        /* \"#utility.yul\":6206:6222   */\n      add\n        /* \"#utility.yul\":6171:6236   */\n      tag_72\n      jump\t// in\n    tag_168:\n        /* \"#utility.yul\":6261:6290   */\n      tag_169\n        /* \"#utility.yul\":6283:6289   */\n      dup2\n        /* \"#utility.yul\":6261:6290   */\n      tag_55\n      jump\t// in\n    tag_169:\n        /* \"#utility.yul\":6256:6259   */\n      dup5\n        /* \"#utility.yul\":6252:6291   */\n      add\n        /* \"#utility.yul\":6245:6291   */\n      swap2\n      pop\n        /* \"#utility.yul\":6012:6297   */\n      pop\n        /* \"#utility.yul\":5920:6297   */\n      swap3\n      swap2\n      pop\n      pop\n      jump\t// out\n        /* \"#utility.yul\":6303:6421   */\n    tag_74:\n        /* \"#utility.yul\":6390:6414   */\n      tag_171\n        /* \"#utility.yul\":6408:6413   */\n      dup2\n        /* \"#utility.yul\":6390:6414   */\n      tag_63\n      jump\t// in\n    tag_171:\n        /* \"#utility.yul\":6385:6388   */\n      dup3\n        /* \"#utility.yul\":6378:6415   */\n      mstore\n        /* \"#utility.yul\":6303:6421   */\n      pop\n      pop\n      jump\t// out\n        /* \"#utility.yul\":6427:7455   */\n    tag_14:\n        /* \"#utility.yul\":6712:6716   */\n      0x00\n        /* \"#utility.yul\":6750:6753   */\n      0xa0\n        /* \"#utility.yul\":6739:6748   */\n      dup3\n        /* \"#utility.yul\":6735:6754   */\n      add\n        /* \"#utility.yul\":6727:6754   */\n      swap1\n      pop\n        /* \"#utility.yul\":6800:6809   */\n      dup2\n        /* \"#utility.yul\":6794:6798   */\n      dup2\n        /* \"#utility.yul\":6790:6810   */\n      sub\n        /* \"#utility.yul\":6786:6787   */\n      0x00\n        /* \"#utility.yul\":6775:6784   */\n      dup4\n        /* \"#utility.yul\":6771:6788   */\n      add\n        /* \"#utility.yul\":6764:6811   */\n      mstore\n        /* \"#utility.yul\":6828:6906   */\n      tag_173\n        /* \"#utility.yul\":6901:6905   */\n      dup2\n        /* \"#utility.yul\":6892:6898   */\n      dup9\n        /* \"#utility.yul\":6828:6906   */\n      tag_73\n      jump\t// in\n    tag_173:\n        /* \"#utility.yul\":6820:6906   */\n      swap1\n      pop\n        /* \"#utility.yul\":6953:6962   */\n      dup2\n        /* \"#utility.yul\":6947:6951   */\n      dup2\n        /* \"#utility.yul\":6943:6963   */\n      sub\n        /* \"#utility.yul\":6938:6940   */\n      0x20\n        /* \"#utility.yul\":6927:6936   */\n      dup4\n        /* \"#utility.yul\":6923:6941   */\n      add\n        /* \"#utility.yul\":6916:6964   */\n      mstore\n        /* \"#utility.yul\":6981:7059   */\n      tag_174\n        /* \"#utility.yul\":7054:7058   */\n      dup2\n        /* \"#utility.yul\":7045:7051   */\n      dup8\n        /* \"#utility.yul\":6981:7059   */\n      tag_73\n      jump\t// in\n    tag_174:\n        /* \"#utility.yul\":6973:7059   */\n      swap1\n      pop\n        /* \"#utility.yul\":7106:7115   */\n      dup2\n        /* \"#utility.yul\":7100:7104   */\n      dup2\n        /* \"#utility.yul\":7096:7116   */\n      sub\n        /* \"#utility.yul\":7091:7093   */\n      0x40\n        /* \"#utility.yul\":7080:7089   */\n      dup4\n        /* \"#utility.yul\":7076:7094   */\n      add\n        /* \"#utility.yul\":7069:7117   */\n      mstore\n        /* \"#utility.yul\":7134:7212   */\n      tag_175\n        /* \"#utility.yul\":7207:7211   */\n      dup2\n        /* \"#utility.yul\":7198:7204   */\n      dup7\n        /* \"#utility.yul\":7134:7212   */\n      tag_73\n      jump\t// in\n    tag_175:\n        /* \"#utility.yul\":7126:7212   */\n      swap1\n      pop\n        /* \"#utility.yul\":7259:7268   */\n      dup2\n        /* \"#utility.yul\":7253:7257   */\n      dup2\n        /* \"#utility.yul\":7249:7269   */\n      sub\n        /* \"#utility.yul\":7244:7246   */\n      0x60\n        /* \"#utility.yul\":7233:7242   */\n      dup4\n        /* \"#utility.yul\":7229:7247   */\n      add\n        /* \"#utility.yul\":7222:7270   */\n      mstore\n        /* \"#utility.yul\":7287:7365   */\n      tag_176\n        /* \"#utility.yul\":7360:7364   */\n      dup2\n        /* \"#utility.yul\":7351:7357   */\n      dup6\n        /* \"#utility.yul\":7287:7365   */\n      tag_73\n      jump\t// in\n    tag_176:\n        /* \"#utility.yul\":7279:7365   */\n      swap1\n      pop\n        /* \"#utility.yul\":7375:7448   */\n      tag_177\n        /* \"#utility.yul\":7443:7446   */\n      0x80\n        /* \"#utility.yul\":7432:7441   */\n      dup4\n        /* \"#utility.yul\":7428:7447   */\n      add\n        /* \"#utility.yul\":7419:7425   */\n      dup5\n        /* \"#utility.yul\":7375:7448   */\n      tag_74\n      jump\t// in\n    tag_177:\n        /* \"#utility.yul\":6427:7455   */\n      swap7\n      swap6\n      pop\n      pop\n      pop\n      pop\n      pop\n      pop\n      jump\t// out\n        /* \"#utility.yul\":7461:7635   */\n    tag_75:\n        /* \"#utility.yul\":7601:7627   */\n      0x557365726e616d652063616e6e6f7420626520656d7074790000000000000000\n        /* \"#utility.yul\":7597:7598   */\n      0x00\n        /* \"#utility.yul\":7589:7595   */\n      dup3\n        /* \"#utility.yul\":7585:7599   */\n      add\n        /* \"#utility.yul\":7578:7628   */\n      mstore\n        /* \"#utility.yul\":7461:7635   */\n      pop\n      jump\t// out\n        /* \"#utility.yul\":7641:8007   */\n    tag_76:\n        /* \"#utility.yul\":7783:7786   */\n      0x00\n        /* \"#utility.yul\":7804:7871   */\n      tag_180\n        /* \"#utility.yul\":7868:7870   */\n      0x18\n        /* \"#utility.yul\":7863:7866   */\n      dup4\n        /* \"#utility.yul\":7804:7871   */\n      tag_71\n      jump\t// in\n    tag_180:\n        /* \"#utility.yul\":7797:7871   */\n      swap2\n      pop\n        /* \"#utility.yul\":7880:7973   */\n      tag_181\n        /* \"#utility.yul\":7969:7972   */\n      dup3\n        /* \"#utility.yul\":7880:7973   */\n      tag_75\n      jump\t// in\n    tag_181:\n        /* \"#utility.yul\":7998:8000   */\n      0x20\n        /* \"#utility.yul\":7993:7996   */\n      dup3\n        /* \"#utility.yul\":7989:8001   */\n      add\n        /* \"#utility.yul\":7982:8001   */\n      swap1\n      pop\n        /* \"#utility.yul\":7641:8007   */\n      swap2\n      swap1\n      pop\n      jump\t// out\n        /* \"#utility.yul\":8013:8432   */\n    tag_18:\n        /* \"#utility.yul\":8179:8183   */\n      0x00\n        /* \"#utility.yul\":8217:8219   */\n      0x20\n        /* \"#utility.yul\":8206:8215   */\n      dup3\n        /* \"#utility.yul\":8202:8220   */\n      add\n        /* \"#utility.yul\":8194:8220   */\n      swap1\n      pop\n        /* \"#utility.yul\":8266:8275   */\n      dup2\n        /* \"#utility.yul\":8260:8264   */\n      dup2\n        /* \"#utility.yul\":8256:8276   */\n      sub\n        /* \"#utility.yul\":8252:8253   */\n      0x00\n        /* \"#utility.yul\":8241:8250   */\n      dup4\n        /* \"#utility.yul\":8237:8254   */\n      add\n        /* \"#utility.yul\":8230:8277   */\n      mstore\n        /* \"#utility.yul\":8294:8425   */\n      tag_183\n        /* \"#utility.yul\":8420:8424   */\n      dup2\n        /* \"#utility.yul\":8294:8425   */\n      tag_76\n      jump\t// in\n    tag_183:\n        /* \"#utility.yul\":8286:8425   */\n      swap1\n      pop\n        /* \"#utility.yul\":8013:8432   */\n      swap2\n      swap1\n      pop\n      jump\t// out\n        /* \"#utility.yul\":8438:8609   */\n    tag_77:\n        /* \"#utility.yul\":8578:8601   */\n      0x456d61696c2063616e6e6f7420626520656d7074790000000000000000000000\n        /* \"#utility.yul\":8574:8575   */\n      0x00\n        /* \"#utility.yul\":8566:8572   */\n      dup3\n        /* \"#utility.yul\":8562:8576   */\n      add\n        /* \"#utility.yul\":8555:8602   */\n      mstore\n        /* \"#utility.yul\":8438:8609   */\n      pop\n      jump\t// out\n        /* \"#utility.yul\":8615:8981   */\n    tag_78:\n        /* \"#utility.yul\":8757:8760   */\n      0x00\n        /* \"#utility.yul\":8778:8845   */\n      tag_186\n        /* \"#utility.yul\":8842:8844   */\n      0x15\n        /* \"#utility.yul\":8837:8840   */\n      dup4\n        /* \"#utility.yul\":8778:8845   */\n      tag_71\n      jump\t// in\n    tag_186:\n        /* \"#utility.yul\":8771:8845   */\n      swap2\n      pop\n        /* \"#utility.yul\":8854:8947   */\n      tag_187\n        /* \"#utility.yul\":8943:8946   */\n      dup3\n        /* \"#utility.yul\":8854:8947   */\n      tag_77\n      jump\t// in\n    tag_187:\n        /* \"#utility.yul\":8972:8974   */\n      0x20\n        /* \"#utility.yul\":8967:8970   */\n      dup3\n        /* \"#utility.yul\":8963:8975   */\n      add\n        /* \"#utility.yul\":8956:8975   */\n      swap1\n      pop\n        /* \"#utility.yul\":8615:8981   */\n      swap2\n      swap1\n      pop\n      jump\t// out\n        /* \"#utility.yul\":8987:9406   */\n    tag_21:\n        /* \"#utility.yul\":9153:9157   */\n      0x00\n        /* \"#utility.yul\":9191:9193   */\n      0x20\n        /* \"#utility.yul\":9180:9189   */\n      dup3\n        /* \"#utility.yul\":9176:9194   */\n      add\n        /* \"#utility.yul\":9168:9194   */\n      swap1\n      pop\n        /* \"#utility.yul\":9240:9249   */\n      dup2\n        /* \"#utility.yul\":9234:9238   */\n      dup2\n        /* \"#utility.yul\":9230:9250   */\n      sub\n        /* \"#utility.yul\":9226:9227   */\n      0x00\n        /* \"#utility.yul\":9215:9224   */\n      dup4\n        /* \"#utility.yul\":9211:9228   */\n      add\n        /* \"#utility.yul\":9204:9251   */\n      mstore\n        /* \"#utility.yul\":9268:9399   */\n      tag_189\n        /* \"#utility.yul\":9394:9398   */\n      dup2\n        /* \"#utility.yul\":9268:9399   */\n      tag_78\n      jump\t// in\n    tag_189:\n        /* \"#utility.yul\":9260:9399   */\n      swap1\n      pop\n        /* \"#utility.yul\":8987:9406   */\n      swap2\n      swap1\n      pop\n      jump\t// out\n        /* \"#utility.yul\":9412:9592   */\n    tag_79:\n        /* \"#utility.yul\":9460:9537   */\n      0x4e487b7100000000000000000000000000000000000000000000000000000000\n        /* \"#utility.yul\":9457:9458   */\n      0x00\n        /* \"#utility.yul\":9450:9538   */\n      mstore\n        /* \"#utility.yul\":9557:9561   */\n      0x22\n        /* \"#utility.yul\":9554:9555   */\n      0x04\n        /* \"#utility.yul\":9547:9562   */\n      mstore\n        /* \"#utility.yul\":9581:9585   */\n      0x24\n        /* \"#utility.yul\":9578:9579   */\n      0x00\n        /* \"#utility.yul\":9571:9586   */\n      revert\n        /* \"#utility.yul\":9598:9918   */\n    tag_30:\n        /* \"#utility.yul\":9642:9648   */\n      0x00\n        /* \"#utility.yul\":9679:9680   */\n      0x02\n        /* \"#utility.yul\":9673:9677   */\n      dup3\n        /* \"#utility.yul\":9669:9681   */\n      div\n        /* \"#utility.yul\":9659:9681   */\n      swap1\n      pop\n        /* \"#utility.yul\":9726:9727   */\n      0x01\n        /* \"#utility.yul\":9720:9724   */\n      dup3\n        /* \"#utility.yul\":9716:9728   */\n      and\n        /* \"#utility.yul\":9747:9765   */\n      dup1\n        /* \"#utility.yul\":9737:9818   */\n      tag_192\n      jumpi\n        /* \"#utility.yul\":9803:9807   */\n      0x7f\n        /* \"#utility.yul\":9795:9801   */\n      dup3\n        /* \"#utility.yul\":9791:9808   */\n      and\n        /* \"#utility.yul\":9781:9808   */\n      swap2\n      pop\n        /* \"#utility.yul\":9737:9818   */\n    tag_192:\n        /* \"#utility.yul\":9865:9867   */\n      0x20\n        /* \"#utility.yul\":9857:9863   */\n      dup3\n        /* \"#utility.yul\":9854:9868   */\n      lt\n        /* \"#utility.yul\":9834:9852   */\n      dup2\n        /* \"#utility.yul\":9831:9869   */\n      sub\n        /* \"#utility.yul\":9828:9912   */\n      tag_193\n      jumpi\n        /* \"#utility.yul\":9884:9902   */\n      tag_194\n      tag_79\n      jump\t// in\n    tag_194:\n        /* \"#utility.yul\":9828:9912   */\n    tag_193:\n        /* \"#utility.yul\":9649:9918   */\n      pop\n        /* \"#utility.yul\":9598:9918   */\n      swap2\n      swap1\n      pop\n      jump\t// out\n        /* \"#utility.yul\":9924:10065   */\n    tag_80:\n        /* \"#utility.yul\":9973:9977   */\n      0x00\n        /* \"#utility.yul\":9996:9999   */\n      dup2\n        /* \"#utility.yul\":9988:9999   */\n      swap1\n      pop\n        /* \"#utility.yul\":10019:10022   */\n      dup2\n        /* \"#utility.yul\":10016:10017   */\n      0x00\n        /* \"#utility.yul\":10009:10023   */\n      mstore\n        /* \"#utility.yul\":10053:10057   */\n      0x20\n        /* \"#utility.yul\":10050:10051   */\n      0x00\n        /* \"#utility.yul\":10040:10058   */\n      keccak256\n        /* \"#utility.yul\":10032:10058   */\n      swap1\n      pop\n        /* \"#utility.yul\":9924:10065   */\n      swap2\n      swap1\n      pop\n      jump\t// out\n        /* \"#utility.yul\":10071:10164   */\n    tag_81:\n        /* \"#utility.yul\":10108:10114   */\n      0x00\n        /* \"#utility.yul\":10155:10157   */\n      0x20\n        /* \"#utility.yul\":10150:10152   */\n      0x1f\n        /* \"#utility.yul\":10143:10148   */\n      dup4\n        /* \"#utility.yul\":10139:10153   */\n      add\n        /* \"#utility.yul\":10135:10158   */\n      div\n        /* \"#utility.yul\":10125:10158   */\n      swap1\n      pop\n        /* \"#utility.yul\":10071:10164   */\n      swap2\n      swap1\n      pop\n      jump\t// out\n        /* \"#utility.yul\":10170:10277   */\n    tag_82:\n        /* \"#utility.yul\":10214:10222   */\n      0x00\n        /* \"#utility.yul\":10264:10269   */\n      dup3\n        /* \"#utility.yul\":10258:10262   */\n      dup3\n        /* \"#utility.yul\":10254:10270   */\n      shl\n        /* \"#utility.yul\":10233:10270   */\n      swap1\n      pop\n        /* \"#utility.yul\":10170:10277   */\n      swap3\n      swap2\n      pop\n      pop\n      jump\t// out\n        /* \"#utility.yul\":10283:10676   */\n    tag_83:\n        /* \"#utility.yul\":10352:10358   */\n      0x00\n        /* \"#utility.yul\":10402:10403   */\n      0x08\n        /* \"#utility.yul\":10390:10400   */\n      dup4\n        /* \"#utility.yul\":10386:10404   */\n      mul\n        /* \"#utility.yul\":10425:10522   */\n      tag_199\n        /* \"#utility.yul\":10455:10521   */\n      0xffffffffffffffffffffffffffffffffffffffffffffffffffffffffffffffff\n        /* \"#utility.yul\":10444:10453   */\n      dup3\n        /* \"#utility.yul\":10425:10522   */\n      tag_82\n      jump\t// in\n    tag_199:\n        /* \"#utility.yul\":10543:10582   */\n      tag_200\n        /* \"#utility.yul\":10573:10581   */\n      dup7\n        /* \"#utility.yul\":10562:10571   */\n      dup4\n        /* \"#utility.yul\":10543:10582   */\n      tag_82\n      jump\t// in\n    tag_200:\n        /* \"#utility.yul\":10531:10582   */\n      swap6\n      pop\n        /* \"#utility.yul\":10615:10619   */\n      dup1\n        /* \"#utility.yul\":10611:10620   */\n      not\n        /* \"#utility.yul\":10604:10609   */\n      dup5\n        /* \"#utility.yul\":10600:10621   */\n      and\n        /* \"#utility.yul\":10591:10621   */\n      swap4\n      pop\n        /* \"#utility.yul\":10664:10668   */\n      dup1\n        /* \"#utility.yul\":10654:10662   */\n      dup7\n        /* \"#utility.yul\":10650:10669   */\n      and\n        /* \"#utility.yul\":10643:10648   */\n      dup5\n        /* \"#utility.yul\":10640:10670   */\n      or\n        /* \"#utility.yul\":10630:10670   */\n      swap3\n      pop\n        /* \"#utility.yul\":10359:10676   */\n      pop\n      pop\n        /* \"#utility.yul\":10283:10676   */\n      swap4\n      swap3\n      pop\n      pop\n      pop\n      jump\t// out\n        /* \"#utility.yul\":10682:10742   */\n    tag_84:\n        /* \"#utility.yul\":10710:10713   */\n      0x00\n        /* \"#utility.yul\":10731:10736   */\n      dup2\n        /* \"#utility.yul\":10724:10736   */\n      swap1\n      pop\n        /* \"#utility.yul\":10682:10742   */\n      swap2\n      swap1\n      pop\n      jump\t// out\n        /* \"#utility.yul\":10748:10890   */\n    tag_85:\n        /* \"#utility.yul\":10798:10807   */\n      0x00\n        /* \"#utility.yul\":10831:10884   */\n      tag_203\n        /* \"#utility.yul\":10849:10883   */\n      tag_204\n        /* \"#utility.yul\":10858:10882   */\n      tag_205\n        /* \"#utility.yul\":10876:10881   */\n      dup5\n        /* \"#utility.yul\":10858:10882   */\n      tag_63\n      jump\t// in\n    tag_205:\n        /* \"#utility.yul\":10849:10883   */\n      tag_84\n      jump\t// in\n    tag_204:\n        /* \"#utility.yul\":10831:10884   */\n      tag_63\n      jump\t// in\n    tag_203:\n        /* \"#utility.yul\":10818:10884   */\n      swap1\n      pop\n        /* \"#utility.yul\":10748:10890   */\n      swap2\n      swap1\n      pop\n      jump\t// out\n        /* \"#utility.yul\":10896:10971   */\n    tag_86:\n        /* \"#utility.yul\":10939:10942   */\n      0x00\n        /* \"#utility.yul\":10960:10965   */\n      dup2\n        /* \"#utility.yul\":10953:10965   */\n      swap1\n      pop\n        /* \"#utility.yul\":10896:10971   */\n      swap2\n      swap1\n      pop\n      jump\t// out\n        /* \"#utility.yul\":10977:11246   */\n    tag_87:\n        /* \"#utility.yul\":11087:11126   */\n      tag_208\n        /* \"#utility.yul\":11118:11125   */\n      dup4\n        /* \"#utility.yul\":11087:11126   */\n      tag_85\n      jump\t// in\n    tag_208:\n        /* \"#utility.yul\":11148:11239   */\n      tag_209\n        /* \"#utility.yul\":11197:11238   */\n      tag_210\n        /* \"#utility.yul\":11221:11237   */\n      dup3\n        /* \"#utility.yul\":11197:11238   */\n      tag_86\n      jump\t// in\n    tag_210:\n        /* \"#utility.yul\":11189:11195   */\n      dup5\n        /* \"#utility.yul\":11182:11186   */\n      dup5\n        /* \"#utility.yul\":11176:11187   */\n      sload\n        /* \"#utility.yul\":11148:11239   */\n      tag_83\n      jump\t// in\n    tag_209:\n        /* \"#utility.yul\":11142:11146   */\n      dup3\n        /* \"#utility.yul\":11135:11240   */\n      sstore\n        /* \"#utility.yul\":11053:11246   */\n      pop\n        /* \"#utility.yul\":10977:11246   */\n      pop\n      pop\n      pop\n      jump\t// out\n        /* \"#utility.yul\":11252:11325   */\n    tag_88:\n        /* \"#utility.yul\":11297:11300   */\n      0x00\n        /* \"#utility.yul\":11252:11325   */\n      swap1\n      jump\t// out\n        /* \"#utility.yul\":11331:11520   */\n    tag_89:\n        /* \"#utility.yul\":11408:11440   */\n      tag_213\n      tag_88\n      jump\t// in\n    tag_213:\n        /* \"#utility.yul\":11449:11514   */\n      tag_214\n        /* \"#utility.yul\":11507:11513   */\n      dup2\n        /* \"#utility.yul\":11499:11505   */\n      dup5\n        /* \"#utility.yul\":11493:11497   */\n      dup5\n        /* \"#utility.yul\":11449:11514   */\n      tag_87\n      jump\t// in\n    tag_214:\n        /* \"#utility.yul\":11384:11520   */\n      pop\n        /* \"#utility.yul\":11331:11520   */\n      pop\n      pop\n      jump\t// out\n        /* \"#utility.yul\":11526:11712   */\n    tag_90:\n        /* \"#utility.yul\":11586:11706   */\n    tag_216:\n        /* \"#utility.yul\":11603:11606   */\n      dup2\n        /* \"#utility.yul\":11596:11601   */\n      dup2\n        /* \"#utility.yul\":11593:11607   */\n      lt\n        /* \"#utility.yul\":11586:11706   */\n      iszero\n      tag_218\n      jumpi\n        /* \"#utility.yul\":11657:11696   */\n      tag_219\n        /* \"#utility.yul\":11694:11695   */\n      0x00\n        /* \"#utility.yul\":11687:11692   */\n      dup3\n        /* \"#utility.yul\":11657:11696   */\n      tag_89\n      jump\t// in\n    tag_219:\n        /* \"#utility.yul\":11630:11631   */\n      0x01\n        /* \"#utility.yul\":11623:11628   */\n      dup2\n        /* \"#utility.yul\":11619:11632   */\n      add\n        /* \"#utility.yul\":11610:11632   */\n      swap1\n      pop\n        /* \"#utility.yul\":11586:11706   */\n      jump(tag_216)\n    tag_218:\n        /* \"#utility.yul\":11526:11712   */\n      pop\n      pop\n      jump\t// out\n        /* \"#utility.yul\":11718:12261   */\n    tag_91:\n        /* \"#utility.yul\":11819:11821   */\n      0x1f\n        /* \"#utility.yul\":11814:11817   */\n      dup3\n        /* \"#utility.yul\":11811:11822   */\n      gt\n        /* \"#utility.yul\":11808:12254   */\n      iszero\n      tag_221\n      jumpi\n        /* \"#utility.yul\":11853:11891   */\n      tag_222\n        /* \"#utility.yul\":11885:11890   */\n      dup2\n        /* \"#utility.yul\":11853:11891   */\n      tag_80\n      jump\t// in\n    tag_222:\n        /* \"#utility.yul\":11937:11966   */\n      tag_223\n        /* \"#utility.yul\":11955:11965   */\n      dup5\n        /* \"#utility.yul\":11937:11966   */\n      tag_81\n      jump\t// in\n    tag_223:\n        /* \"#utility.yul\":11927:11935   */\n      dup2\n        /* \"#utility.yul\":11923:11967   */\n      add\n        /* \"#utility.yul\":12120:12122   */\n      0x20\n        /* \"#utility.yul\":12108:12118   */\n      dup6\n        /* \"#utility.yul\":12105:12123   */\n      lt\n        /* \"#utility.yul\":12102:12151   */\n      iszero\n      tag_224\n      jumpi\n        /* \"#utility.yul\":12141:12149   */\n      dup2\n        /* \"#utility.yul\":12126:12149   */\n      swap1\n      pop\n        /* \"#utility.yul\":12102:12151   */\n    tag_224:\n        /* \"#utility.yul\":12164:12244   */\n      tag_225\n        /* \"#utility.yul\":12220:12242   */\n      tag_226\n        /* \"#utility.yul\":12238:12241   */\n      dup6\n        /* \"#utility.yul\":12220:12242   */\n      tag_81\n      jump\t// in\n    tag_226:\n        /* \"#utility.yul\":12210:12218   */\n      dup4\n        /* \"#utility.yul\":12206:12243   */\n      add\n        /* \"#utility.yul\":12193:12204   */\n      dup3\n        /* \"#utility.yul\":12164:12244   */\n      tag_90\n      jump\t// in\n    tag_225:\n        /* \"#utility.yul\":11823:12254   */\n      pop\n      pop\n        /* \"#utility.yul\":11808:12254   */\n    tag_221:\n        /* \"#utility.yul\":11718:12261   */\n      pop\n      pop\n      pop\n      jump\t// out\n        /* \"#utility.yul\":12267:12384   */\n    tag_92:\n        /* \"#utility.yul\":12321:12329   */\n      0x00\n        /* \"#utility.yul\":12371:12376   */\n      dup3\n        /* \"#utility.yul\":12365:12369   */\n      dup3\n        /* \"#utility.yul\":12361:12377   */\n      shr\n        /* \"#utility.yul\":12340:12377   */\n      swap1\n      pop\n        /* \"#utility.yul\":12267:12384   */\n      swap3\n      swap2\n      pop\n      pop\n      jump\t// out\n        /* \"#utility.yul\":12390:12559   */\n    tag_93:\n        /* \"#utility.yul\":12434:12440   */\n      0x00\n        /* \"#utility.yul\":12467:12518   */\n      tag_229\n        /* \"#utility.yul\":12515:12516   */\n      0x00\n        /* \"#utility.yul\":12511:12517   */\n      not\n        /* \"#utility.yul\":12503:12508   */\n      dup5\n        /* \"#utility.yul\":12500:12501   */\n      0x08\n        /* \"#utility.yul\":12496:12509   */\n      mul\n        /* \"#utility.yul\":12467:12518   */\n      tag_92\n      jump\t// in\n    tag_229:\n        /* \"#utility.yul\":12463:12519   */\n      not\n        /* \"#utility.yul\":12548:12552   */\n      dup1\n        /* \"#utility.yul\":12542:12546   */\n      dup4\n        /* \"#utility.yul\":12538:12553   */\n      and\n        /* \"#utility.yul\":12528:12553   */\n      swap2\n      pop\n        /* \"#utility.yul\":12441:12559   */\n      pop\n        /* \"#utility.yul\":12390:12559   */\n      swap3\n      swap2\n      pop\n      pop\n      jump\t// out\n        /* \"#utility.yul\":12564:12859   */\n    tag_94:\n        /* \"#utility.yul\":12640:12644   */\n      0x00\n        /* \"#utility.yul\":12786:12815   */\n      tag_231\n        /* \"#utility.yul\":12811:12814   */\n      dup4\n        /* \"#utility.yul\":12805:12809   */\n      dup4\n        /* \"#utility.yul\":12786:12815   */\n      tag_93\n      jump\t// in\n    tag_231:\n        /* \"#utility.yul\":12778:12815   */\n      swap2\n      pop\n        /* \"#utility.yul\":12848:12851   */\n      dup3\n        /* \"#utility.yul\":12845:12846   */\n      0x02\n        /* \"#utility.yul\":12841:12852   */\n      mul\n        /* \"#utility.yul\":12835:12839   */\n      dup3\n        /* \"#utility.yul\":12832:12853   */\n      or\n        /* \"#utility.yul\":12824:12853   */\n      swap1\n      pop\n        /* \"#utility.yul\":12564:12859   */\n      swap3\n      swap2\n      pop\n      pop\n      jump\t// out\n        /* \"#utility.yul\":12864:14259   */\n    tag_23:\n        /* \"#utility.yul\":12981:13018   */\n      tag_233\n        /* \"#utility.yul\":13014:13017   */\n      dup3\n        /* \"#utility.yul\":12981:13018   */\n      tag_70\n      jump\t// in\n    tag_233:\n        /* \"#utility.yul\":13083:13101   */\n      0xffffffffffffffff\n        /* \"#utility.yul\":13075:13081   */\n      dup2\n        /* \"#utility.yul\":13072:13102   */\n      gt\n        /* \"#utility.yul\":13069:13125   */\n      iszero\n      tag_234\n      jumpi\n        /* \"#utility.yul\":13105:13123   */\n      tag_235\n      tag_56\n      jump\t// in\n    tag_235:\n        /* \"#utility.yul\":13069:13125   */\n    tag_234:\n        /* \"#utility.yul\":13149:13187   */\n      tag_236\n        /* \"#utility.yul\":13181:13185   */\n      dup3\n        /* \"#utility.yul\":13175:13186   */\n      sload\n        /* \"#utility.yul\":13149:13187   */\n      tag_30\n      jump\t// in\n    tag_236:\n        /* \"#utility.yul\":13234:13301   */\n      tag_237\n        /* \"#utility.yul\":13294:13300   */\n      dup3\n        /* \"#utility.yul\":13286:13292   */\n      dup3\n        /* \"#utility.yul\":13280:13284   */\n      dup6\n        /* \"#utility.yul\":13234:13301   */\n      tag_91\n      jump\t// in\n    tag_237:\n        /* \"#utility.yul\":13328:13329   */\n      0x00\n        /* \"#utility.yul\":13352:13356   */\n      0x20\n        /* \"#utility.yul\":13339:13356   */\n      swap1\n      pop\n        /* \"#utility.yul\":13384:13386   */\n      0x1f\n        /* \"#utility.yul\":13376:13382   */\n      dup4\n        /* \"#utility.yul\":13373:13387   */\n      gt\n        /* \"#utility.yul\":13401:13402   */\n      0x01\n        /* \"#utility.yul\":13396:14014   */\n      dup2\n      eq\n      tag_239\n      jumpi\n        /* \"#utility.yul\":14058:14059   */\n      0x00\n        /* \"#utility.yul\":14075:14081   */\n      dup5\n        /* \"#utility.yul\":14072:14149   */\n      iszero\n      tag_240\n      jumpi\n        /* \"#utility.yul\":14124:14133   */\n      dup3\n        /* \"#utility.yul\":14119:14122   */\n      dup8\n        /* \"#utility.yul\":14115:14134   */\n      add\n        /* \"#utility.yul\":14109:14135   */\n      mload\n        /* \"#utility.yul\":14100:14135   */\n      swap1\n      pop\n        /* \"#utility.yul\":14072:14149   */\n    tag_240:\n        /* \"#utility.yul\":14175:14242   */\n      tag_241\n        /* \"#utility.yul\":14235:14241   */\n      dup6\n        /* \"#utility.yul\":14228:14233   */\n      dup3\n        /* \"#utility.yul\":14175:14242   */\n      tag_94\n      jump\t// in\n    tag_241:\n        /* \"#utility.yul\":14169:14173   */\n      dup7\n        /* \"#utility.yul\":14162:14243   */\n      sstore\n        /* \"#utility.yul\":14031:14253   */\n      pop\n        /* \"#utility.yul\":13366:14253   */\n      jump(tag_238)\n        /* \"#utility.yul\":13396:14014   */\n    tag_239:\n        /* \"#utility.yul\":13448:13452   */\n      0x1f\n        /* \"#utility.yul\":13444:13453   */\n      not\n        /* \"#utility.yul\":13436:13442   */\n      dup5\n        /* \"#utility.yul\":13432:13454   */\n      and\n        /* \"#utility.yul\":13482:13519   */\n      tag_242\n        /* \"#utility.yul\":13514:13518   */\n      dup7\n        /* \"#utility.yul\":13482:13519   */\n      tag_80\n      jump\t// in\n    tag_242:\n        /* \"#utility.yul\":13541:13542   */\n      0x00\n        /* \"#utility.yul\":13555:13763   */\n    tag_243:\n        /* \"#utility.yul\":13569:13576   */\n      dup3\n        /* \"#utility.yul\":13566:13567   */\n      dup2\n        /* \"#utility.yul\":13563:13577   */\n      lt\n        /* \"#utility.yul\":13555:13763   */\n      iszero\n      tag_245\n      jumpi\n        /* \"#utility.yul\":13648:13657   */\n      dup5\n        /* \"#utility.yul\":13643:13646   */\n      dup10\n        /* \"#utility.yul\":13639:13658   */\n      add\n        /* \"#utility.yul\":13633:13659   */\n      mload\n        /* \"#utility.yul\":13625:13631   */\n      dup3\n        /* \"#utility.yul\":13618:13660   */\n      sstore\n        /* \"#utility.yul\":13699:13700   */\n      0x01\n        /* \"#utility.yul\":13691:13697   */\n      dup3\n        /* \"#utility.yul\":13687:13701   */\n      add\n        /* \"#utility.yul\":13677:13701   */\n      swap2\n      pop\n        /* \"#utility.yul\":13746:13748   */\n      0x20\n        /* \"#utility.yul\":13735:13744   */\n      dup6\n        /* \"#utility.yul\":13731:13749   */\n      add\n        /* \"#utility.yul\":13718:13749   */\n      swap5\n      pop\n        /* \"#utility.yul\":13592:13596   */\n      0x20\n        /* \"#utility.yul\":13589:13590   */\n      dup2\n        /* \"#utility.yul\":13585:13597   */\n      add\n        /* \"#utility.yul\":13580:13597   */\n      swap1\n      pop\n        /* \"#utility.yul\":13555:13763   */\n      jump(tag_243)\n    tag_245:\n        /* \"#utility.yul\":13791:13797   */\n      dup7\n        /* \"#utility.yul\":13782:13789   */\n      dup4\n        /* \"#utility.yul\":13779:13798   */\n      lt\n        /* \"#utility.yul\":13776:13955   */\n      iszero\n      tag_246\n      jumpi\n        /* \"#utility.yul\":13849:13858   */\n      dup5\n        /* \"#utility.yul\":13844:13847   */\n      dup10\n        /* \"#utility.yul\":13840:13859   */\n      add\n        /* \"#utility.yul\":13834:13860   */\n      mload\n        /* \"#utility.yul\":13892:13940   */\n      tag_247\n        /* \"#utility.yul\":13934:13938   */\n      0x1f\n        /* \"#utility.yul\":13926:13932   */\n      dup10\n        /* \"#utility.yul\":13922:13939   */\n      and\n        /* \"#utility.yul\":13911:13920   */\n      dup3\n        /* \"#utility.yul\":13892:13940   */\n      tag_93\n      jump\t// in\n    tag_247:\n        /* \"#utility.yul\":13884:13890   */\n      dup4\n        /* \"#utility.yul\":13877:13941   */\n      sstore\n        /* \"#utility.yul\":13799:13955   */\n      pop\n        /* \"#utility.yul\":13776:13955   */\n    tag_246:\n        /* \"#utility.yul\":14001:14002   */\n      0x01\n        /* \"#utility.yul\":13997:13998   */\n      0x02\n        /* \"#utility.yul\":13989:13995   */\n      dup9\n        /* \"#utility.yul\":13985:13999   */\n      mul\n        /* \"#utility.yul\":13981:14003   */\n      add\n        /* \"#utility.yul\":13975:13979   */\n      dup9\n        /* \"#utility.yul\":13968:14004   */\n      sstore\n        /* \"#utility.yul\":13403:14014   */\n      pop\n      pop\n      pop\n        /* \"#utility.yul\":13366:14253   */\n    tag_238:\n      pop\n        /* \"#utility.yul\":12956:14259   */\n      pop\n      pop\n      pop\n        /* \"#utility.yul\":12864:14259   */\n      pop\n      pop\n      jump\t// out\n        /* \"#utility.yul\":14265:14578   */\n    tag_28:\n        /* \"#utility.yul\":14378:14382   */\n      0x00\n        /* \"#utility.yul\":14416:14418   */\n      0x20\n        /* \"#utility.yul\":14405:14414   */\n      dup3\n        /* \"#utility.yul\":14401:14419   */\n      add\n        /* \"#utility.yul\":14393:14419   */\n      swap1\n      pop\n        /* \"#utility.yul\":14465:14474   */\n      dup2\n        /* \"#utility.yul\":14459:14463   */\n      dup2\n        /* \"#utility.yul\":14455:14475   */\n      sub\n        /* \"#utility.yul\":14451:14452   */\n      0x00\n        /* \"#utility.yul\":14440:14449   */\n      dup4\n        /* \"#utility.yul\":14436:14453   */\n      add\n        /* \"#utility.yul\":14429:14476   */\n      mstore\n        /* \"#utility.yul\":14493:14571   */\n      tag_249\n        /* \"#utility.yul\":14566:14570   */\n      dup2\n        /* \"#utility.yul\":14557:14563   */\n      dup5\n        /* \"#utility.yul\":14493:14571   */\n      tag_73\n      jump\t// in\n    tag_249:\n        /* \"#utility.yul\":14485:14571   */\n      swap1\n      pop\n        /* \"#utility.yul\":14265:14578   */\n      swap3\n      swap2\n      pop\n      pop\n      jump\t// out\n\n    auxdata: 0xa2646970667358221220db3577eaf5a087e2b89329e07217b532be3820dba0fae51729a3ca9882e87b5864736f6c63430008160033\n}\n",
				"bytecode": {
					"linkReferences": {},
					"object": "608060405234801561000f575f80fd5b50610c488061001d5f395ff3fe608060405234801561000f575f80fd5b5060043610610034575f3560e01c80630c89338a14610038578063a87430ba14610054575b5f80fd5b610052600480360381019061004d91906105f7565b610088565b005b61006e60048036038101906100699190610738565b61022e565b60405161007f9594939291906107ec565b60405180910390f35b5f8551116100cb576040517f08c379a00000000000000000000000000000000000000000000000000000000081526004016100c2906108a3565b60405180910390fd5b5f84511161010e576040517f08c379a00000000000000000000000000000000000000000000000000000000081526004016101059061090b565b60405180910390fd5b5f6040518060a00160405280878152602001868152602001858152602001848152602001838152509050805f803373ffffffffffffffffffffffffffffffffffffffff1673ffffffffffffffffffffffffffffffffffffffff1681526020019081526020015f205f820151815f0190816101889190610b23565b50602082015181600101908161019e9190610b23565b5060408201518160020190816101b49190610b23565b5060608201518160030190816101ca9190610b23565b50608082015181600401559050503373ffffffffffffffffffffffffffffffffffffffff167f48cac28ad4dc618e15f4c2dd5e97751182f166de97b25618318b2112aa951a2f8760405161021e9190610bf2565b60405180910390a2505050505050565b5f602052805f5260405f205f91509050805f01805461024c90610956565b80601f016020809104026020016040519081016040528092919081815260200182805461027890610956565b80156102c35780601f1061029a576101008083540402835291602001916102c3565b820191905f5260205f20905b8154815290600101906020018083116102a657829003601f168201915b5050505050908060010180546102d890610956565b80601f016020809104026020016040519081016040528092919081815260200182805461030490610956565b801561034f5780601f106103265761010080835404028352916020019161034f565b820191905f5260205f20905b81548152906001019060200180831161033257829003601f168201915b50505050509080600201805461036490610956565b80601f016020809104026020016040519081016040528092919081815260200182805461039090610956565b80156103db5780601f106103b2576101008083540402835291602001916103db565b820191905f5260205f20905b8154815290600101906020018083116103be57829003601f168201915b5050505050908060030180546103f090610956565b80601f016020809104026020016040519081016040528092919081815260200182805461041c90610956565b80156104675780601f1061043e57610100808354040283529160200191610467565b820191905f5260205f20905b81548152906001019060200180831161044a57829003601f168201915b5050505050908060040154905085565b5f604051905090565b5f80fd5b5f80fd5b5f80fd5b5f80fd5b5f601f19601f8301169050919050565b7f4e487b71000000000000000000000000000000000000000000000000000000005f52604160045260245ffd5b6104d682610490565b810181811067ffffffffffffffff821117156104f5576104f46104a0565b5b80604052505050565b5f610507610477565b905061051382826104cd565b919050565b5f67ffffffffffffffff821115610532576105316104a0565b5b61053b82610490565b9050602081019050919050565b828183375f83830152505050565b5f61056861056384610518565b6104fe565b9050828152602081018484840111156105845761058361048c565b5b61058f848285610548565b509392505050565b5f82601f8301126105ab576105aa610488565b5b81356105bb848260208601610556565b91505092915050565b5f819050919050565b6105d6816105c4565b81146105e0575f80fd5b50565b5f813590506105f1816105cd565b92915050565b5f805f805f60a086880312156106105761060f610480565b5b5f86013567ffffffffffffffff81111561062d5761062c610484565b5b61063988828901610597565b955050602086013567ffffffffffffffff81111561065a57610659610484565b5b61066688828901610597565b945050604086013567ffffffffffffffff81111561068757610686610484565b5b61069388828901610597565b935050606086013567ffffffffffffffff8111156106b4576106b3610484565b5b6106c088828901610597565b92505060806106d1888289016105e3565b9150509295509295909350565b5f73ffffffffffffffffffffffffffffffffffffffff82169050919050565b5f610707826106de565b9050919050565b610717816106fd565b8114610721575f80fd5b50565b5f813590506107328161070e565b92915050565b5f6020828403121561074d5761074c610480565b5b5f61075a84828501610724565b91505092915050565b5f81519050919050565b5f82825260208201905092915050565b5f5b8381101561079a57808201518184015260208101905061077f565b5f8484015250505050565b5f6107af82610763565b6107b9818561076d565b93506107c981856020860161077d565b6107d281610490565b840191505092915050565b6107e6816105c4565b82525050565b5f60a0820190508181035f83015261080481886107a5565b9050818103602083015261081881876107a5565b9050818103604083015261082c81866107a5565b9050818103606083015261084081856107a5565b905061084f60808301846107dd565b9695505050505050565b7f557365726e616d652063616e6e6f7420626520656d70747900000000000000005f82015250565b5f61088d60188361076d565b915061089882610859565b602082019050919050565b5f6020820190508181035f8301526108ba81610881565b9050919050565b7f456d61696c2063616e6e6f7420626520656d70747900000000000000000000005f82015250565b5f6108f560158361076d565b9150610900826108c1565b602082019050919050565b5f6020820190508181035f830152610922816108e9565b9050919050565b7f4e487b71000000000000000000000000000000000000000000000000000000005f52602260045260245ffd5b5f600282049050600182168061096d57607f821691505b6020821081036109805761097f610929565b5b50919050565b5f819050815f5260205f209050919050565b5f6020601f8301049050919050565b5f82821b905092915050565b5f600883026109e27fffffffffffffffffffffffffffffffffffffffffffffffffffffffffffffffff826109a7565b6109ec86836109a7565b95508019841693508086168417925050509392505050565b5f819050919050565b5f610a27610a22610a1d846105c4565b610a04565b6105c4565b9050919050565b5f819050919050565b610a4083610a0d565b610a54610a4c82610a2e565b8484546109b3565b825550505050565b5f90565b610a68610a5c565b610a73818484610a37565b505050565b5b81811015610a9657610a8b5f82610a60565b600181019050610a79565b5050565b601f821115610adb57610aac81610986565b610ab584610998565b81016020851015610ac4578190505b610ad8610ad085610998565b830182610a78565b50505b505050565b5f82821c905092915050565b5f610afb5f1984600802610ae0565b1980831691505092915050565b5f610b138383610aec565b9150826002028217905092915050565b610b2c82610763565b67ffffffffffffffff811115610b4557610b446104a0565b5b610b4f8254610956565b610b5a828285610a9a565b5f60209050601f831160018114610b8b575f8415610b79578287015190505b610b838582610b08565b865550610bea565b601f198416610b9986610986565b5f5b82811015610bc057848901518255600182019150602085019450602081019050610b9b565b86831015610bdd5784890151610bd9601f891682610aec565b8355505b6001600288020188555050505b505050505050565b5f6020820190508181035f830152610c0a81846107a5565b90509291505056fea2646970667358221220db3577eaf5a087e2b89329e07217b532be3820dba0fae51729a3ca9882e87b5864736f6c63430008160033",
					"opcodes": "PUSH1 0x80 PUSH1 0x40 MSTORE CALLVALUE DUP1 ISZERO PUSH2 0xF JUMPI PUSH0 DUP1 REVERT JUMPDEST POP PUSH2 0xC48 DUP1 PUSH2 0x1D PUSH0 CODECOPY PUSH0 RETURN INVALID PUSH1 0x80 PUSH1 0x40 MSTORE CALLVALUE DUP1 ISZERO PUSH2 0xF JUMPI PUSH0 DUP1 REVERT JUMPDEST POP PUSH1 0x4 CALLDATASIZE LT PUSH2 0x34 JUMPI PUSH0 CALLDATALOAD PUSH1 0xE0 SHR DUP1 PUSH4 0xC89338A EQ PUSH2 0x38 JUMPI DUP1 PUSH4 0xA87430BA EQ PUSH2 0x54 JUMPI JUMPDEST PUSH0 DUP1 REVERT JUMPDEST PUSH2 0x52 PUSH1 0x4 DUP1 CALLDATASIZE SUB DUP2 ADD SWAP1 PUSH2 0x4D SWAP2 SWAP1 PUSH2 0x5F7 JUMP JUMPDEST PUSH2 0x88 JUMP JUMPDEST STOP JUMPDEST PUSH2 0x6E PUSH1 0x4 DUP1 CALLDATASIZE SUB DUP2 ADD SWAP1 PUSH2 0x69 SWAP2 SWAP1 PUSH2 0x738 JUMP JUMPDEST PUSH2 0x22E JUMP JUMPDEST PUSH1 0x40 MLOAD PUSH2 0x7F SWAP6 SWAP5 SWAP4 SWAP3 SWAP2 SWAP1 PUSH2 0x7EC JUMP JUMPDEST PUSH1 0x40 MLOAD DUP1 SWAP2 SUB SWAP1 RETURN JUMPDEST PUSH0 DUP6 MLOAD GT PUSH2 0xCB JUMPI PUSH1 0x40 MLOAD PUSH32 0x8C379A000000000000000000000000000000000000000000000000000000000 DUP2 MSTORE PUSH1 0x4 ADD PUSH2 0xC2 SWAP1 PUSH2 0x8A3 JUMP JUMPDEST PUSH1 0x40 MLOAD DUP1 SWAP2 SUB SWAP1 REVERT JUMPDEST PUSH0 DUP5 MLOAD GT PUSH2 0x10E JUMPI PUSH1 0x40 MLOAD PUSH32 0x8C379A000000000000000000000000000000000000000000000000000000000 DUP2 MSTORE PUSH1 0x4 ADD PUSH2 0x105 SWAP1 PUSH2 0x90B JUMP JUMPDEST PUSH1 0x40 MLOAD DUP1 SWAP2 SUB SWAP1 REVERT JUMPDEST PUSH0 PUSH1 0x40 MLOAD DUP1 PUSH1 0xA0 ADD PUSH1 0x40 MSTORE DUP1 DUP8 DUP2 MSTORE PUSH1 0x20 ADD DUP7 DUP2 MSTORE PUSH1 0x20 ADD DUP6 DUP2 MSTORE PUSH1 0x20 ADD DUP5 DUP2 MSTORE PUSH1 0x20 ADD DUP4 DUP2 MSTORE POP SWAP1 POP DUP1 PUSH0 DUP1 CALLER PUSH20 0xFFFFFFFFFFFFFFFFFFFFFFFFFFFFFFFFFFFFFFFF AND PUSH20 0xFFFFFFFFFFFFFFFFFFFFFFFFFFFFFFFFFFFFFFFF AND DUP2 MSTORE PUSH1 0x20 ADD SWAP1 DUP2 MSTORE PUSH1 0x20 ADD PUSH0 KECCAK256 PUSH0 DUP3 ADD MLOAD DUP2 PUSH0 ADD SWAP1 DUP2 PUSH2 0x188 SWAP2 SWAP1 PUSH2 0xB23 JUMP JUMPDEST POP PUSH1 0x20 DUP3 ADD MLOAD DUP2 PUSH1 0x1 ADD SWAP1 DUP2 PUSH2 0x19E SWAP2 SWAP1 PUSH2 0xB23 JUMP JUMPDEST POP PUSH1 0x40 DUP3 ADD MLOAD DUP2 PUSH1 0x2 ADD SWAP1 DUP2 PUSH2 0x1B4 SWAP2 SWAP1 PUSH2 0xB23 JUMP JUMPDEST POP PUSH1 0x60 DUP3 ADD MLOAD DUP2 PUSH1 0x3 ADD SWAP1 DUP2 PUSH2 0x1CA SWAP2 SWAP1 PUSH2 0xB23 JUMP JUMPDEST POP PUSH1 0x80 DUP3 ADD MLOAD DUP2 PUSH1 0x4 ADD SSTORE SWAP1 POP POP CALLER PUSH20 0xFFFFFFFFFFFFFFFFFFFFFFFFFFFFFFFFFFFFFFFF AND PUSH32 0x48CAC28AD4DC618E15F4C2DD5E97751182F166DE97B25618318B2112AA951A2F DUP8 PUSH1 0x40 MLOAD PUSH2 0x21E SWAP2 SWAP1 PUSH2 0xBF2 JUMP JUMPDEST PUSH1 0x40 MLOAD DUP1 SWAP2 SUB SWAP1 LOG2 POP POP POP POP POP POP JUMP JUMPDEST PUSH0 PUSH1 0x20 MSTORE DUP1 PUSH0 MSTORE PUSH1 0x40 PUSH0 KECCAK256 PUSH0 SWAP2 POP SWAP1 POP DUP1 PUSH0 ADD DUP1 SLOAD PUSH2 0x24C SWAP1 PUSH2 0x956 JUMP JUMPDEST DUP1 PUSH1 0x1F ADD PUSH1 0x20 DUP1 SWAP2 DIV MUL PUSH1 0x20 ADD PUSH1 0x40 MLOAD SWAP1 DUP2 ADD PUSH1 0x40 MSTORE DUP1 SWAP3 SWAP2 SWAP1 DUP2 DUP2 MSTORE PUSH1 0x20 ADD DUP3 DUP1 SLOAD PUSH2 0x278 SWAP1 PUSH2 0x956 JUMP JUMPDEST DUP1 ISZERO PUSH2 0x2C3 JUMPI DUP1 PUSH1 0x1F LT PUSH2 0x29A JUMPI PUSH2 0x100 DUP1 DUP4 SLOAD DIV MUL DUP4 MSTORE SWAP2 PUSH1 0x20 ADD SWAP2 PUSH2 0x2C3 JUMP JUMPDEST DUP3 ADD SWAP2 SWAP1 PUSH0 MSTORE PUSH1 0x20 PUSH0 KECCAK256 SWAP1 JUMPDEST DUP2 SLOAD DUP2 MSTORE SWAP1 PUSH1 0x1 ADD SWAP1 PUSH1 0x20 ADD DUP1 DUP4 GT PUSH2 0x2A6 JUMPI DUP3 SWAP1 SUB PUSH1 0x1F AND DUP3 ADD SWAP2 JUMPDEST POP POP POP POP POP SWAP1 DUP1 PUSH1 0x1 ADD DUP1 SLOAD PUSH2 0x2D8 SWAP1 PUSH2 0x956 JUMP JUMPDEST DUP1 PUSH1 0x1F ADD PUSH1 0x20 DUP1 SWAP2 DIV MUL PUSH1 0x20 ADD PUSH1 0x40 MLOAD SWAP1 DUP2 ADD PUSH1 0x40 MSTORE DUP1 SWAP3 SWAP2 SWAP1 DUP2 DUP2 MSTORE PUSH1 0x20 ADD DUP3 DUP1 SLOAD PUSH2 0x304 SWAP1 PUSH2 0x956 JUMP JUMPDEST DUP1 ISZERO PUSH2 0x34F JUMPI DUP1 PUSH1 0x1F LT PUSH2 0x326 JUMPI PUSH2 0x100 DUP1 DUP4 SLOAD DIV MUL DUP4 MSTORE SWAP2 PUSH1 0x20 ADD SWAP2 PUSH2 0x34F JUMP JUMPDEST DUP3 ADD SWAP2 SWAP1 PUSH0 MSTORE PUSH1 0x20 PUSH0 KECCAK256 SWAP1 JUMPDEST DUP2 SLOAD DUP2 MSTORE SWAP1 PUSH1 0x1 ADD SWAP1 PUSH1 0x20 ADD DUP1 DUP4 GT PUSH2 0x332 JUMPI DUP3 SWAP1 SUB PUSH1 0x1F AND DUP3 ADD SWAP2 JUMPDEST POP POP POP POP POP SWAP1 DUP1 PUSH1 0x2 ADD DUP1 SLOAD PUSH2 0x364 SWAP1 PUSH2 0x956 JUMP JUMPDEST DUP1 PUSH1 0x1F ADD PUSH1 0x20 DUP1 SWAP2 DIV MUL PUSH1 0x20 ADD PUSH1 0x40 MLOAD SWAP1 DUP2 ADD PUSH1 0x40 MSTORE DUP1 SWAP3 SWAP2 SWAP1 DUP2 DUP2 MSTORE PUSH1 0x20 ADD DUP3 DUP1 SLOAD PUSH2 0x390 SWAP1 PUSH2 0x956 JUMP JUMPDEST DUP1 ISZERO PUSH2 0x3DB JUMPI DUP1 PUSH1 0x1F LT PUSH2 0x3B2 JUMPI PUSH2 0x100 DUP1 DUP4 SLOAD DIV MUL DUP4 MSTORE SWAP2 PUSH1 0x20 ADD SWAP2 PUSH2 0x3DB JUMP JUMPDEST DUP3 ADD SWAP2 SWAP1 PUSH0 MSTORE PUSH1 0x20 PUSH0 KECCAK256 SWAP1 JUMPDEST DUP2 SLOAD DUP2 MSTORE SWAP1 PUSH1 0x1 ADD SWAP1 PUSH1 0x20 ADD DUP1 DUP4 GT PUSH2 0x3BE JUMPI DUP3 SWAP1 SUB PUSH1 0x1F AND DUP3 ADD SWAP2 JUMPDEST POP POP POP POP POP SWAP1 DUP1 PUSH1 0x3 ADD DUP1 SLOAD PUSH2 0x3F0 SWAP1 PUSH2 0x956 JUMP JUMPDEST DUP1 PUSH1 0x1F ADD PUSH1 0x20 DUP1 SWAP2 DIV MUL PUSH1 0x20 ADD PUSH1 0x40 MLOAD SWAP1 DUP2 ADD PUSH1 0x40 MSTORE DUP1 SWAP3 SWAP2 SWAP1 DUP2 DUP2 MSTORE PUSH1 0x20 ADD DUP3 DUP1 SLOAD PUSH2 0x41C SWAP1 PUSH2 0x956 JUMP JUMPDEST DUP1 ISZERO PUSH2 0x467 JUMPI DUP1 PUSH1 0x1F LT PUSH2 0x43E JUMPI PUSH2 0x100 DUP1 DUP4 SLOAD DIV MUL DUP4 MSTORE SWAP2 PUSH1 0x20 ADD SWAP2 PUSH2 0x467 JUMP JUMPDEST DUP3 ADD SWAP2 SWAP1 PUSH0 MSTORE PUSH1 0x20 PUSH0 KECCAK256 SWAP1 JUMPDEST DUP2 SLOAD DUP2 MSTORE SWAP1 PUSH1 0x1 ADD SWAP1 PUSH1 0x20 ADD DUP1 DUP4 GT PUSH2 0x44A JUMPI DUP3 SWAP1 SUB PUSH1 0x1F AND DUP3 ADD SWAP2 JUMPDEST POP POP POP POP POP SWAP1 DUP1 PUSH1 0x4 ADD SLOAD SWAP1 POP DUP6 JUMP JUMPDEST PUSH0 PUSH1 0x40 MLOAD SWAP1 POP SWAP1 JUMP JUMPDEST PUSH0 DUP1 REVERT JUMPDEST PUSH0 DUP1 REVERT JUMPDEST PUSH0 DUP1 REVERT JUMPDEST PUSH0 DUP1 REVERT JUMPDEST PUSH0 PUSH1 0x1F NOT PUSH1 0x1F DUP4 ADD AND SWAP1 POP SWAP2 SWAP1 POP JUMP JUMPDEST PUSH32 0x4E487B7100000000000000000000000000000000000000000000000000000000 PUSH0 MSTORE PUSH1 0x41 PUSH1 0x4 MSTORE PUSH1 0x24 PUSH0 REVERT JUMPDEST PUSH2 0x4D6 DUP3 PUSH2 0x490 JUMP JUMPDEST DUP2 ADD DUP2 DUP2 LT PUSH8 0xFFFFFFFFFFFFFFFF DUP3 GT OR ISZERO PUSH2 0x4F5 JUMPI PUSH2 0x4F4 PUSH2 0x4A0 JUMP JUMPDEST JUMPDEST DUP1 PUSH1 0x40 MSTORE POP POP POP JUMP JUMPDEST PUSH0 PUSH2 0x507 PUSH2 0x477 JUMP JUMPDEST SWAP1 POP PUSH2 0x513 DUP3 DUP3 PUSH2 0x4CD JUMP JUMPDEST SWAP2 SWAP1 POP JUMP JUMPDEST PUSH0 PUSH8 0xFFFFFFFFFFFFFFFF DUP3 GT ISZERO PUSH2 0x532 JUMPI PUSH2 0x531 PUSH2 0x4A0 JUMP JUMPDEST JUMPDEST PUSH2 0x53B DUP3 PUSH2 0x490 JUMP JUMPDEST SWAP1 POP PUSH1 0x20 DUP2 ADD SWAP1 POP SWAP2 SWAP1 POP JUMP JUMPDEST DUP3 DUP2 DUP4 CALLDATACOPY PUSH0 DUP4 DUP4 ADD MSTORE POP POP POP JUMP JUMPDEST PUSH0 PUSH2 0x568 PUSH2 0x563 DUP5 PUSH2 0x518 JUMP JUMPDEST PUSH2 0x4FE JUMP JUMPDEST SWAP1 POP DUP3 DUP2 MSTORE PUSH1 0x20 DUP2 ADD DUP5 DUP5 DUP5 ADD GT ISZERO PUSH2 0x584 JUMPI PUSH2 0x583 PUSH2 0x48C JUMP JUMPDEST JUMPDEST PUSH2 0x58F DUP5 DUP3 DUP6 PUSH2 0x548 JUMP JUMPDEST POP SWAP4 SWAP3 POP POP POP JUMP JUMPDEST PUSH0 DUP3 PUSH1 0x1F DUP4 ADD SLT PUSH2 0x5AB JUMPI PUSH2 0x5AA PUSH2 0x488 JUMP JUMPDEST JUMPDEST DUP2 CALLDATALOAD PUSH2 0x5BB DUP5 DUP3 PUSH1 0x20 DUP7 ADD PUSH2 0x556 JUMP JUMPDEST SWAP2 POP POP SWAP3 SWAP2 POP POP JUMP JUMPDEST PUSH0 DUP2 SWAP1 POP SWAP2 SWAP1 POP JUMP JUMPDEST PUSH2 0x5D6 DUP2 PUSH2 0x5C4 JUMP JUMPDEST DUP2 EQ PUSH2 0x5E0 JUMPI PUSH0 DUP1 REVERT JUMPDEST POP JUMP JUMPDEST PUSH0 DUP2 CALLDATALOAD SWAP1 POP PUSH2 0x5F1 DUP2 PUSH2 0x5CD JUMP JUMPDEST SWAP3 SWAP2 POP POP JUMP JUMPDEST PUSH0 DUP1 PUSH0 DUP1 PUSH0 PUSH1 0xA0 DUP7 DUP9 SUB SLT ISZERO PUSH2 0x610 JUMPI PUSH2 0x60F PUSH2 0x480 JUMP JUMPDEST JUMPDEST PUSH0 DUP7 ADD CALLDATALOAD PUSH8 0xFFFFFFFFFFFFFFFF DUP2 GT ISZERO PUSH2 0x62D JUMPI PUSH2 0x62C PUSH2 0x484 JUMP JUMPDEST JUMPDEST PUSH2 0x639 DUP9 DUP3 DUP10 ADD PUSH2 0x597 JUMP JUMPDEST SWAP6 POP POP PUSH1 0x20 DUP7 ADD CALLDATALOAD PUSH8 0xFFFFFFFFFFFFFFFF DUP2 GT ISZERO PUSH2 0x65A JUMPI PUSH2 0x659 PUSH2 0x484 JUMP JUMPDEST JUMPDEST PUSH2 0x666 DUP9 DUP3 DUP10 ADD PUSH2 0x597 JUMP JUMPDEST SWAP5 POP POP PUSH1 0x40 DUP7 ADD CALLDATALOAD PUSH8 0xFFFFFFFFFFFFFFFF DUP2 GT ISZERO PUSH2 0x687 JUMPI PUSH2 0x686 PUSH2 0x484 JUMP JUMPDEST JUMPDEST PUSH2 0x693 DUP9 DUP3 DUP10 ADD PUSH2 0x597 JUMP JUMPDEST SWAP4 POP POP PUSH1 0x60 DUP7 ADD CALLDATALOAD PUSH8 0xFFFFFFFFFFFFFFFF DUP2 GT ISZERO PUSH2 0x6B4 JUMPI PUSH2 0x6B3 PUSH2 0x484 JUMP JUMPDEST JUMPDEST PUSH2 0x6C0 DUP9 DUP3 DUP10 ADD PUSH2 0x597 JUMP JUMPDEST SWAP3 POP POP PUSH1 0x80 PUSH2 0x6D1 DUP9 DUP3 DUP10 ADD PUSH2 0x5E3 JUMP JUMPDEST SWAP2 POP POP SWAP3 SWAP6 POP SWAP3 SWAP6 SWAP1 SWAP4 POP JUMP JUMPDEST PUSH0 PUSH20 0xFFFFFFFFFFFFFFFFFFFFFFFFFFFFFFFFFFFFFFFF DUP3 AND SWAP1 POP SWAP2 SWAP1 POP JUMP JUMPDEST PUSH0 PUSH2 0x707 DUP3 PUSH2 0x6DE JUMP JUMPDEST SWAP1 POP SWAP2 SWAP1 POP JUMP JUMPDEST PUSH2 0x717 DUP2 PUSH2 0x6FD JUMP JUMPDEST DUP2 EQ PUSH2 0x721 JUMPI PUSH0 DUP1 REVERT JUMPDEST POP JUMP JUMPDEST PUSH0 DUP2 CALLDATALOAD SWAP1 POP PUSH2 0x732 DUP2 PUSH2 0x70E JUMP JUMPDEST SWAP3 SWAP2 POP POP JUMP JUMPDEST PUSH0 PUSH1 0x20 DUP3 DUP5 SUB SLT ISZERO PUSH2 0x74D JUMPI PUSH2 0x74C PUSH2 0x480 JUMP JUMPDEST JUMPDEST PUSH0 PUSH2 0x75A DUP5 DUP3 DUP6 ADD PUSH2 0x724 JUMP JUMPDEST SWAP2 POP POP SWAP3 SWAP2 POP POP JUMP JUMPDEST PUSH0 DUP2 MLOAD SWAP1 POP SWAP2 SWAP1 POP JUMP JUMPDEST PUSH0 DUP3 DUP3 MSTORE PUSH1 0x20 DUP3 ADD SWAP1 POP SWAP3 SWAP2 POP POP JUMP JUMPDEST PUSH0 JUMPDEST DUP4 DUP2 LT ISZERO PUSH2 0x79A JUMPI DUP1 DUP3 ADD MLOAD DUP2 DUP5 ADD MSTORE PUSH1 0x20 DUP2 ADD SWAP1 POP PUSH2 0x77F JUMP JUMPDEST PUSH0 DUP5 DUP5 ADD MSTORE POP POP POP POP JUMP JUMPDEST PUSH0 PUSH2 0x7AF DUP3 PUSH2 0x763 JUMP JUMPDEST PUSH2 0x7B9 DUP2 DUP6 PUSH2 0x76D JUMP JUMPDEST SWAP4 POP PUSH2 0x7C9 DUP2 DUP6 PUSH1 0x20 DUP7 ADD PUSH2 0x77D JUMP JUMPDEST PUSH2 0x7D2 DUP2 PUSH2 0x490 JUMP JUMPDEST DUP5 ADD SWAP2 POP POP SWAP3 SWAP2 POP POP JUMP JUMPDEST PUSH2 0x7E6 DUP2 PUSH2 0x5C4 JUMP JUMPDEST DUP3 MSTORE POP POP JUMP JUMPDEST PUSH0 PUSH1 0xA0 DUP3 ADD SWAP1 POP DUP2 DUP2 SUB PUSH0 DUP4 ADD MSTORE PUSH2 0x804 DUP2 DUP9 PUSH2 0x7A5 JUMP JUMPDEST SWAP1 POP DUP2 DUP2 SUB PUSH1 0x20 DUP4 ADD MSTORE PUSH2 0x818 DUP2 DUP8 PUSH2 0x7A5 JUMP JUMPDEST SWAP1 POP DUP2 DUP2 SUB PUSH1 0x40 DUP4 ADD MSTORE PUSH2 0x82C DUP2 DUP7 PUSH2 0x7A5 JUMP JUMPDEST SWAP1 POP DUP2 DUP2 SUB PUSH1 0x60 DUP4 ADD MSTORE PUSH2 0x840 DUP2 DUP6 PUSH2 0x7A5 JUMP JUMPDEST SWAP1 POP PUSH2 0x84F PUSH1 0x80 DUP4 ADD DUP5 PUSH2 0x7DD JUMP JUMPDEST SWAP7 SWAP6 POP POP POP POP POP POP JUMP JUMPDEST PUSH32 0x557365726E616D652063616E6E6F7420626520656D7074790000000000000000 PUSH0 DUP3 ADD MSTORE POP JUMP JUMPDEST PUSH0 PUSH2 0x88D PUSH1 0x18 DUP4 PUSH2 0x76D JUMP JUMPDEST SWAP2 POP PUSH2 0x898 DUP3 PUSH2 0x859 JUMP JUMPDEST PUSH1 0x20 DUP3 ADD SWAP1 POP SWAP2 SWAP1 POP JUMP JUMPDEST PUSH0 PUSH1 0x20 DUP3 ADD SWAP1 POP DUP2 DUP2 SUB PUSH0 DUP4 ADD MSTORE PUSH2 0x8BA DUP2 PUSH2 0x881 JUMP JUMPDEST SWAP1 POP SWAP2 SWAP1 POP JUMP JUMPDEST PUSH32 0x456D61696C2063616E6E6F7420626520656D7074790000000000000000000000 PUSH0 DUP3 ADD MSTORE POP JUMP JUMPDEST PUSH0 PUSH2 0x8F5 PUSH1 0x15 DUP4 PUSH2 0x76D JUMP JUMPDEST SWAP2 POP PUSH2 0x900 DUP3 PUSH2 0x8C1 JUMP JUMPDEST PUSH1 0x20 DUP3 ADD SWAP1 POP SWAP2 SWAP1 POP JUMP JUMPDEST PUSH0 PUSH1 0x20 DUP3 ADD SWAP1 POP DUP2 DUP2 SUB PUSH0 DUP4 ADD MSTORE PUSH2 0x922 DUP2 PUSH2 0x8E9 JUMP JUMPDEST SWAP1 POP SWAP2 SWAP1 POP JUMP JUMPDEST PUSH32 0x4E487B7100000000000000000000000000000000000000000000000000000000 PUSH0 MSTORE PUSH1 0x22 PUSH1 0x4 MSTORE PUSH1 0x24 PUSH0 REVERT JUMPDEST PUSH0 PUSH1 0x2 DUP3 DIV SWAP1 POP PUSH1 0x1 DUP3 AND DUP1 PUSH2 0x96D JUMPI PUSH1 0x7F DUP3 AND SWAP2 POP JUMPDEST PUSH1 0x20 DUP3 LT DUP2 SUB PUSH2 0x980 JUMPI PUSH2 0x97F PUSH2 0x929 JUMP JUMPDEST JUMPDEST POP SWAP2 SWAP1 POP JUMP JUMPDEST PUSH0 DUP2 SWAP1 POP DUP2 PUSH0 MSTORE PUSH1 0x20 PUSH0 KECCAK256 SWAP1 POP SWAP2 SWAP1 POP JUMP JUMPDEST PUSH0 PUSH1 0x20 PUSH1 0x1F DUP4 ADD DIV SWAP1 POP SWAP2 SWAP1 POP JUMP JUMPDEST PUSH0 DUP3 DUP3 SHL SWAP1 POP SWAP3 SWAP2 POP POP JUMP JUMPDEST PUSH0 PUSH1 0x8 DUP4 MUL PUSH2 0x9E2 PUSH32 0xFFFFFFFFFFFFFFFFFFFFFFFFFFFFFFFFFFFFFFFFFFFFFFFFFFFFFFFFFFFFFFFF DUP3 PUSH2 0x9A7 JUMP JUMPDEST PUSH2 0x9EC DUP7 DUP4 PUSH2 0x9A7 JUMP JUMPDEST SWAP6 POP DUP1 NOT DUP5 AND SWAP4 POP DUP1 DUP7 AND DUP5 OR SWAP3 POP POP POP SWAP4 SWAP3 POP POP POP JUMP JUMPDEST PUSH0 DUP2 SWAP1 POP SWAP2 SWAP1 POP JUMP JUMPDEST PUSH0 PUSH2 0xA27 PUSH2 0xA22 PUSH2 0xA1D DUP5 PUSH2 0x5C4 JUMP JUMPDEST PUSH2 0xA04 JUMP JUMPDEST PUSH2 0x5C4 JUMP JUMPDEST SWAP1 POP SWAP2 SWAP1 POP JUMP JUMPDEST PUSH0 DUP2 SWAP1 POP SWAP2 SWAP1 POP JUMP JUMPDEST PUSH2 0xA40 DUP4 PUSH2 0xA0D JUMP JUMPDEST PUSH2 0xA54 PUSH2 0xA4C DUP3 PUSH2 0xA2E JUMP JUMPDEST DUP5 DUP5 SLOAD PUSH2 0x9B3 JUMP JUMPDEST DUP3 SSTORE POP POP POP POP JUMP JUMPDEST PUSH0 SWAP1 JUMP JUMPDEST PUSH2 0xA68 PUSH2 0xA5C JUMP JUMPDEST PUSH2 0xA73 DUP2 DUP5 DUP5 PUSH2 0xA37 JUMP JUMPDEST POP POP POP JUMP JUMPDEST JUMPDEST DUP2 DUP2 LT ISZERO PUSH2 0xA96 JUMPI PUSH2 0xA8B PUSH0 DUP3 PUSH2 0xA60 JUMP JUMPDEST PUSH1 0x1 DUP2 ADD SWAP1 POP PUSH2 0xA79 JUMP JUMPDEST POP POP JUMP JUMPDEST PUSH1 0x1F DUP3 GT ISZERO PUSH2 0xADB JUMPI PUSH2 0xAAC DUP2 PUSH2 0x986 JUMP JUMPDEST PUSH2 0xAB5 DUP5 PUSH2 0x998 JUMP JUMPDEST DUP2 ADD PUSH1 0x20 DUP6 LT ISZERO PUSH2 0xAC4 JUMPI DUP2 SWAP1 POP JUMPDEST PUSH2 0xAD8 PUSH2 0xAD0 DUP6 PUSH2 0x998 JUMP JUMPDEST DUP4 ADD DUP3 PUSH2 0xA78 JUMP JUMPDEST POP POP JUMPDEST POP POP POP JUMP JUMPDEST PUSH0 DUP3 DUP3 SHR SWAP1 POP SWAP3 SWAP2 POP POP JUMP JUMPDEST PUSH0 PUSH2 0xAFB PUSH0 NOT DUP5 PUSH1 0x8 MUL PUSH2 0xAE0 JUMP JUMPDEST NOT DUP1 DUP4 AND SWAP2 POP POP SWAP3 SWAP2 POP POP JUMP JUMPDEST PUSH0 PUSH2 0xB13 DUP4 DUP4 PUSH2 0xAEC JUMP JUMPDEST SWAP2 POP DUP3 PUSH1 0x2 MUL DUP3 OR SWAP1 POP SWAP3 SWAP2 POP POP JUMP JUMPDEST PUSH2 0xB2C DUP3 PUSH2 0x763 JUMP JUMPDEST PUSH8 0xFFFFFFFFFFFFFFFF DUP2 GT ISZERO PUSH2 0xB45 JUMPI PUSH2 0xB44 PUSH2 0x4A0 JUMP JUMPDEST JUMPDEST PUSH2 0xB4F DUP3 SLOAD PUSH2 0x956 JUMP JUMPDEST PUSH2 0xB5A DUP3 DUP3 DUP6 PUSH2 0xA9A JUMP JUMPDEST PUSH0 PUSH1 0x20 SWAP1 POP PUSH1 0x1F DUP4 GT PUSH1 0x1 DUP2 EQ PUSH2 0xB8B JUMPI PUSH0 DUP5 ISZERO PUSH2 0xB79 JUMPI DUP3 DUP8 ADD MLOAD SWAP1 POP JUMPDEST PUSH2 0xB83 DUP6 DUP3 PUSH2 0xB08 JUMP JUMPDEST DUP7 SSTORE POP PUSH2 0xBEA JUMP JUMPDEST PUSH1 0x1F NOT DUP5 AND PUSH2 0xB99 DUP7 PUSH2 0x986 JUMP JUMPDEST PUSH0 JUMPDEST DUP3 DUP2 LT ISZERO PUSH2 0xBC0 JUMPI DUP5 DUP10 ADD MLOAD DUP3 SSTORE PUSH1 0x1 DUP3 ADD SWAP2 POP PUSH1 0x20 DUP6 ADD SWAP5 POP PUSH1 0x20 DUP2 ADD SWAP1 POP PUSH2 0xB9B JUMP JUMPDEST DUP7 DUP4 LT ISZERO PUSH2 0xBDD JUMPI DUP5 DUP10 ADD MLOAD PUSH2 0xBD9 PUSH1 0x1F DUP10 AND DUP3 PUSH2 0xAEC JUMP JUMPDEST DUP4 SSTORE POP JUMPDEST PUSH1 0x1 PUSH1 0x2 DUP9 MUL ADD DUP9 SSTORE POP POP POP JUMPDEST POP POP POP POP POP POP JUMP JUMPDEST PUSH0 PUSH1 0x20 DUP3 ADD SWAP1 POP DUP2 DUP2 SUB PUSH0 DUP4 ADD MSTORE PUSH2 0xC0A DUP2 DUP5 PUSH2 0x7A5 JUMP JUMPDEST SWAP1 POP SWAP3 SWAP2 POP POP JUMP INVALID LOG2 PUSH5 0x6970667358 0x22 SLT KECCAK256 0xDB CALLDATALOAD PUSH24 0xEAF5A087E2B89329E07217B532BE3820DBA0FAE51729A3CA SWAP9 DUP3 0xE8 PUSH28 0x5864736F6C6343000816003300000000000000000000000000000000 "
				},
				"gasEstimates": {
					"creation": {
						"codeDepositCost": "628800",
						"executionCost": "662",
						"totalCost": "629462"
					},
					"external": {
						"registerUser(string,string,string,string,uint256)": "infinite",
						"users(address)": "infinite"
					}
				},
				"methodIdentifiers": {
					"registerUser(string,string,string,string,uint256)": "0c89338a",
					"users(address)": "a87430ba"
				}
			},
			"storageLayout": {
				"storage": [
					{
						"astId": 17,
						"contract": "contracts/UserRegistry.sol:UserRegistry",
						"label": "users",
						"offset": 0,
						"slot": "0",
						"type": "t_mapping(t_address,t_struct(User)12_storage)"
					}
				],
				"types": {
					"t_address": {
						"encoding": "inplace",
						"label": "address",
						"numberOfBytes": "20"
					},
					"t_mapping(t_address,t_struct(User)12_storage)": {
						"encoding": "mapping",
						"key": "t_address",
						"label": "mapping(address => struct UserRegistry.User)",
						"numberOfBytes": "32",
						"value": "t_struct(User)12_storage"
					},
					"t_string_storage": {
						"encoding": "bytes",
						"label": "string",
						"numberOfBytes": "32"
					},
					"t_struct(User)12_storage": {
						"encoding": "inplace",
						"label": "struct UserRegistry.User",
						"members": [
							{
								"astId": 3,
								"contract": "contracts/UserRegistry.sol:UserRegistry",
								"label": "username",
								"offset": 0,
								"slot": "0",
								"type": "t_string_storage"
							},
							{
								"astId": 5,
								"contract": "contracts/UserRegistry.sol:UserRegistry",
								"label": "email",
								"offset": 0,
								"slot": "1",
								"type": "t_string_storage"
							},
							{
								"astId": 7,
								"contract": "contracts/UserRegistry.sol:UserRegistry",
								"label": "phoneNumber",
								"offset": 0,
								"slot": "2",
								"type": "t_string_storage"
							},
							{
								"astId": 9,
								"contract": "contracts/UserRegistry.sol:UserRegistry",
								"label": "profileImage",
								"offset": 0,
								"slot": "3",
								"type": "t_string_storage"
							},
							{
								"astId": 11,
								"contract": "contracts/UserRegistry.sol:UserRegistry",
								"label": "reputation",
								"offset": 0,
								"slot": "4",
								"type": "t_uint256"
							}
						],
						"numberOfBytes": "160"
					},
					"t_uint256": {
						"encoding": "inplace",
						"label": "uint256",
						"numberOfBytes": "32"
					}
				}
			},
			"userdoc": {
				"kind": "user",
				"methods": {},
				"version": 1
			}
		}
	}
}